S012000043616C63756C61746F722E7372656308
S11300001EC2000045C2000043C2000041C20000FD
S11300103FC200003DC200003BC2000039C20000E4
S113002037C2000035C2000033C2000031C20000F4
S11300302FC200002DC200002BC2000029C2000004
S113004027C2000025C2000023C2000021C2000014
S11300501FC200001DC200001BC2000019C2000024
S113006017C2000015C2000013C2000011C2000034
S11300700FC200000DC200000BC2000009C2000044
S113008007C2000005C2000003C2000001C2000054
S1130090FFC10000FDC10000FBC10000F9C1000068
S11300A0F7C10000F5C10000F3C10000F1C1000078
S11300B0EFC10000EDC10000EBC10000E9C1000088
S11300C0E7C10000E5C10000E3C10000100612060C
S11300D01C061E062006230626062B060517082DD9
S11300E0C80516D8F8C91834082DCAD8F6082DCB77
S11300F017882D79CC17877ACBCD89F72E7DCE88BA
S1130100F97BCDCF2C75D1F2D008145F84711524FE
S11301105F847725365F846537465F837247585F0F
S1130120837459695F82796A7B5F82757C895F8198
S1130130698A9C60806F9DAD618170AEBE5F8228CC
S1130140BFCF608237D1E1608138E2F36081390644
S11301501383A2611423839F73243683A0643746D8
S11301607F9F664757829D675869809D686A7A8237
S11301709E6A7B8C819D6B8D9D809D6C9EAF7F9ACA
S11301805EB0BE819C29BFD0829D36D1E1829C3570
S1130190E2F2829E340714A0BC7A1523A0BC782412
S11301A0349FBC6335459EB87646579EBB625868FB
S11301B09EBB6E69799EBA6D7A8A9EBB208B9B9E8C
S11301C0B83A9CAD9BB92AAEBF9BB92BC0D09BB8A3
S11301D033D1E19BB832E1F29AB8318E9CB9D42183
S11301E09DAEB9D32FAFBFB9D32DC0CFBCD830D0BB
S11301F0DFBAD82EE0F2BCD82C072BD7F1C82D6477
S1130200D8F0C96A98D7F0CA99BE172ACBC4D710B8
S11302102FCCD8F51133CD000000000000005F00A2
S1130220000007000700147F147F14242A7F2A1279
S11302302313086462364955225000050300000068
S11302401C2241000041221C00082A1C2A0808081C
S11302503E080800503000000808080808006060E4
S1130260000020100804023E5149453E00427F40F0
S11302700042615149462141454B311814127F1007
S113028027454545393C4A4949300171090503363A
S113029049494936064949291E00363600000056A8
S11302A036000000081422411414141414412214BA
S11302B008000201510906324979413E7E111111AB
S11302C07E7F494949363E414141227F4141221CBA
S11302D07F494949417F090901013E414151327F2A
S11302E00808087F00417F41002040413F017F080A
S11302F01422417F404040407F0204027F7F040873
S1130300107F3E4141413E7F090909063E4151218A
S11303105E7F09192946464949493101017F010196
S11303203F4040403F1F2040201F7F2018207F6314
S1130330140814630304780403615149454300001D
S11303407F4141020408102041417F00000804025B
S1130350040840404040400001020400205454542A
S1130360787F484444383844444420384444487FDF
S11303703854545418087E090102081454543C7F1C
S11303800804047800447D40002040443D00007F80
S113039010284400417F40007C041804787C080441
S11303A0047838444444387C141414080814141889
S11303B07C7C080404084854545420043F444020DE
S11303C03C4040207C1C2040201C3C4030403C44AD
S11303D0281028440C5050503C4464544C440008A9
S11303E036410000007F0000004136080008082A5A
S11303F01C08081C2A080808083E1C08081C3E089B
S1130400087C047414141F10171414141474047C3A
S1130410141417101F7F007F000000007F007F0866
S11304200C3E0C0810307C30107F4141417FCA02E1
S1130430CD0254057A06A406B9063D08E90811243C
S11304401FBECFEFD1E2DEBFCDBF12E0A0E0B2E02D
S1130450E2EEFFE100E00BBF02C007900D92A43D65
S1130460B107D9F726E0A4EDB2E001C01D92AD3486
S1130470B207E1F712E0CFE1D2E004C02197FE0118
S11304800E94180CC731D107C9F7C1D70C94EF0FDC
S1130490B7CD87E880937A0010927C008098819889
S11304A08298839884988598889889988A988B9854
S11304B08C988D980895819A849A899A82E0809381
S11304C07C0080917A00806480937A0080917A0025
S11304D086FDFCCF209178008091790081988498E2
S11304E0899890E0982F8827820F911D0895859A06
S11304F0809A889A83E080937C0080917A0080645B
S113050080937A0080917A0086FDFCCF2091780058
S11305108091790085988098889890E0982F882712
S1130520820F911D0895809A829A889A81E080931F
S11305307C0080917A00806480937A0080917A00B4
S113054086FDFCCF20917800809179008098829874
S1130550889890E0982F8827820F911D0895839A98
S1130560819A8B9A10927C0080917A0080648093A7
S11305707A0080917A0086FDFCCF209178008091EA
S11305807900839881988B9890E0982F8827820F20
S1130590911D089584ED92E07CCF1092D5020895C8
S11305A0CF93DF9300D000D0CDB7DEB769837A83D1
S11305B08B839C8389819A81AB81BC81AC01BD0111
S11305C0415051096109710949835A836B837C83C2
S11305D0892B8A2B8B2B71F70F900F900F900F9014
S11305E0DF91CF91089595E095BD90E02DEE981799
S11305F031F026BDA89BFECFA89A9F5FF8CF08953F
S1130600FC01483C39F04D3CA1F481E496E03BD533
S113061085E0089580E09781891738F4A581B68133
S1130620A80FB11D1C928F5FF6CF1086138286E04F
S113063008958BE0089581E496E025D561E081E496
S113064096E01ED540E060E081E496E027D566E0C0
S113065072E081E496E0A1D561E081E496E010D5F2
S113066041E060E081E496E019D56DE172E081E457
S113067096E093D560E081E496E002D542E060E044
S113068081E496E00BD564E372E081E496E085D5DD
S113069064E081E496E0F4D443E060E081E496E031
S11306A0FDD46FE472E081E496E077D544E060E045
S11306B081E496E0F3D46FE572E081E496E06DD5D1
S11306C045E060E081E496E0E9D46FE672E081E41D
S11306D096E063D546E060E081E496E0DFD46FE71E
S11306E072E081E496E059D561E081E496E0C8D4F3
S11306F047E060E081E496E0D1D46FE872E081E401
S113070096E04BC50F931F93CF93DF9300D000D097
S1130710CDB7DEB78C0165E476E0CE0101965DD6F7
S1130720AE014F5F5F4FF8016281C801029630D07D
S11307300F900F900F900F90DF91CF911F910F9119
S11307400895861718F595E0899FD0011124FD01BD
S1130750E452FF4F5491FD01E252FF4F9491FD0189
S1130760E352FF4F3491FD01E152FF4FE4915417DE
S113077058F4431748F4921738F42E1728F4FD015F
S1130780E052FF4F849108958F5FDBCF80E008959E
S1130790FA01662389F06130F1F4228133813695C0
S11307A027953695279540815181569547955695BD
S11307B0479569E080E00EC0228133813695279504
S11307C0369527954081518156954795569547957D
S11307D062E489E0B6CF80E00895CF93DF931F925F
S11307E0CDB7DEB71982611105C06B9A739A6C9A02
S11307F0749806C06130B9F46C9A749A6B9A7398C1
S11308006F9A77986E9A769A6D9A759800000000A0
S11308101AB889B189836D9A759A6C9A749A6B9A8D
S1130820739A898101C080E00F90DF91CF91089580
S11308300F931F93CF93DF938C01D62FC42F6C2F6C
S1130840C801CBDF87FDFBCF8FEF8AB96E9A76980C
S11308506F9A7798C11105C06B9A739A6C9A7498C1
S113086004C06C9A749A6B9A7398DBB96D9A759AF2
S1130870000000006D9A7598DF91CF911F910F9140
S11308800895CF93DF93EC01688162956695669530
S11308906370CE01A2DF87FDF7CF8881803428F012
S11308A06B9A739A6C9A749804C06C9A749A6B9A43
S11308B073981AB81BB86F9A779A6E9A769A6D9A4B
S11308C0759A0000000089B1000000006D9A7598C7
S11308D098819F5F9883DF91CF910895FF920F9342
S11308E01F93CF93DF93EC01162F6883498300E0B5
S11308F0486BF42E402F60E4CE019ADF402F6F2D19
S1130900CE0196DF402F60ECCE0192DF0F5F023004
S113091089F7012F0295069506950370612F6F7371
S11309206064402FCE0184DF402F6F2DCE01DF9114
S1130930CF911F910F91FF907BCF1F93CF93DF93A4
S1130940EC01162F8881803421F4498160E4CE01C2
S1130950C5DF888182958695869583708A836A81AE
S1130960CE013BDF87FDFBCF8A81882329F06B9A78
S1130970739A6C9A749804C06C9A749A6B9A73986C
S1130980000000008FEF8AB96E9A76986F9A779A72
S11309901BB9000000006D9A759A000000006D9A62
S11309A0759888818F5F8883DF91CF911F91089517
S11309B0262F220F620F660F91CF0F931F93CF93B1
S11309C0DF938C01C0E04C2F60E0C80187DFD0E0EA
S11309D060E0C801B2DFDF5FD038D1F7CF5FC83045
S11309E091F76C9A749A6B9A739ADF91CF911F91D5
S11309F00F910895CF93DF93EC0140E062E018DF9C
S1130A0041E062E0CE0114DF8AE0EDDD40E06FE317
S1130A10CE010EDF41E06FE3CE010ADFCE01CDDF70
S1130A2040E060E0CE01DF91CF9158CFFC0110820D
S1130A30118212822FE723832FEF2AB91BB86F9AF2
S1130A4077986E9A76986D9A75986C9A749A6B9A50
S1130A50739A6A9A729ACECFEF92FF920F931F9372
S1130A60CF93DF93EC01062F142FF42EF694F69413
S1130A70F6944F2D33DFCE0104DFCE0102DFE82EE2
S1130A804F2D602FCE012ADF177061E070E001C0A6
S1130A90660F1A95EAF76E29CE01DF91CF911F9167
S1130AA00F91FF90EF9049CF86EE94E0BFCFCF93A4
S1130AB0DF93EC0181E496E0E6D261E081E496E024
S1130AC0DFD240E060E081E496E0E8D268EA72E0D8
S1130AD081E496E062D340E062E281E496E004D3EC
S1130AE06B816F5B81E496E04AD340E06BE581E47F
S1130AF096E0FAD26B816E5B81E496E040D342E0EB
S1130B0060E081E496E0CAD26C816F5C81E496E097
S1130B1036D345E060E081E496E0C0D26C816E5C3F
S1130B2081E496E02CD347E060E081E496E0B6D21D
S1130B306EEB72E081E496E030D3C7E0D6E04C2F50
S1130B406D2F86EE94E088DFDA5FDE37C1F7C85E8A
S1130B50CF34A1F7C3E04C2F66E086EE94E07CDF4F
S1130B60CC5FCF33C1F7C3E04C2F62E486EE94E050
S1130B7073DFCC5FCF33C1F7C3E04C2F6EE786EE53
S1130B8094E06ADFCC5FCF33C1F7DF91CF91089552
S1130B900F931F93CF93DF9300D000D0CDB7DEB770
S1130BA08C0165E476E0CE01019617D4AE014F5F67
S1130BB05F4FF8016281C8010296EADD0F900F9041
S1130BC00F900F90DF91CF911F910F910895FC0129
S1130BD09481992311F0915094830895FC01948198
S1130BE0993010F49F5F94830895FC0193819923B5
S1130BF011F0915093830895FC019381993010F47E
S1130C009F5F93830895CF93DF9350E0FA01E85CEC
S1130C10F109E830F10560F5EC01EA59FF4F08C627
S1130C20D6DF01C0DBDFE881F9810480F581E02DA6
S1130C30CE01099581E01DC0D8DFF5CFDDDFF3CF0C
S1130C409C818B8106C09C818B8108C09C818B8197
S1130C508F5F2AE004C09C818B818F5F2BE0929F81
S1130C60800D11248D8381E496E00DD282E001C0D1
S1130C7080E0DF91CF910895EC018C0105591D4F5F
S1130C808BE0982E6E0188E0C80ED11C7E01A2E094
S1130C90EA0EF11C88819981DC01ED91FC91A08020
S1130CA0B1800280F381E02D0995482FF80160811D
S1130CB088819981F5010995D8018C93823049F096
S1130CC0853041F7D8011C92F982E882C701EFDE32
S1130CD0E1CFF8019082D982C882C601ACDCDACFB8
S1130CE0FC011082118212821382148215821682F0
S1130CF017820895CF93DF931092EA041092EB04C5
S1130D001092EC041092ED041092EE04C0E0D0E0D6
S1130D10CE0181519B4FE4DF2896C03481E0D8078F
S1130D20B9F7DF91CF910895E4E6F0E080818D7FFB
S1130D30808388E18093C1000895F6DF1092C50096
S1130D4083E18093C40008958FE296E0F6CF84B1E6
S1130D50876084B984B184B985B1876085B985B168
S1130D6085B981E58CBD8DB581608DBD21982998AB
S1130D70089580E396E0EBCF662329F0613029F4EF
S1130D80869A8E9802C0869A8E9AFC016083089592
S1130D90FC0110821482138212821182158217823E
S1130DA01682118610861386128615861486168678
S1130DB0178680EF84B98FEF81B987B9869A8E9AA6
S1130DC0999AA19A9A9AA29A249A2C9A2F9A1AB822
S1130DD01BB808958FEF8AB99A9AA29862B978B924
S1130DE02F98999AA1989A9AA29A00004BB9999A25
S1130DF0A19A9A9AA29A249A2C9A2F9A1AB81BB852
S1130E0008952F9A249A2C98999AA1989A9AA29A1A
S1130E1062B978B91AB81BB8000089B1999AA19A35
S1130E209A9AA29A249A2C9A2F9A1AB81BB80895BF
S1130E307F928F929F92AF92BF92CF92DF92EF9266
S1130E40FF920F931F93CF93DF93EC018B0160E02C
S1130E5093DF8881FE01E80FF11DE80FF11D268163
S1130E6037812F5F3F4F45E0F42EF29EC001F39E81
S1130E70900D11248095909522853385821B930BC8
S1130E8080179107F0F461E0CE0176DF8881FE01DE
S1130E90E80FF11DE80FF11D268137812F5F3F43D5
S1130EA0F29EC001F39E900D1124809590952285A9
S1130EB03385821B930B8017910718F480E090E030
S1130EC0CEC08881FE01E80FF11DE80FF11D868177
S1130ED09781892B89F51C830B831A82198281E0FF
S1130EE08D8313870287402F6AEF7FEFCE0172DF75
S1130EF04C816BEF7FEFCE016DDF49816CEF7FEFAB
S1130F00CE0168DF4A816DEF7FEFCE0163DF4D8153
S1130F106EEF7FEFCE015EDF888190E0FC013396B7
S1130F20EE0FFF1FEC0FFD1F90E4899F902D882783
S1130F301124019691838083888190E0FC0133968B
S1130F40EE0FFF1FEC0FFD1F2081318121153105AC
S1130F5009F4B4CF90E4899F902D88271124281B8D
S1130F60390B55E0752E729E5001739EB00C1124FE
S1130F706501C094D094B601CE0143DFE82E662704
S1130F8077276A197B09CE013CDF882EB6016E5F94
S1130F907F4FCE0136DFF82EB6016D5F7F4FCE0155
S1130FA030DF982EB6016C5F7F4FCE012ADF888137
S1130FB090E0FC01EE0FFF1FEC0FFD1F268137812F
S1130FC02F5F3F4F90E4899F902D88271124A9011A
S1130FD0481B590B749E5001759EB00C1124650179
S1130FE0C094D0942E2D30E038298F2D90E099298B
S1130FF07901E80EF91EC6018E199F098017910721
S113100008F45CCF82859385800F911F9387828734
S1131010402FB601CE01DEDE662777276A197B09E9
S1131020412FCE01D7DEB6016E5F7F4F4E2DCE012C
S1131030D1DEB6016D5F7F4F4F2DCE01CBDEB60101
S11310406C5F7F4F41E0CE01C5DE8881C80FD11DA2
S1131050C80FD11D8E819F8101969F838E83DF915E
S1131060CF911F910F91FF90EF90DF90CF90BF90A1
S1131070AF909F908F907F90089581E396E088CE03
S1131080FC0162830895CF93DF93EC0186EE94E034
S113109094DC18821982DF91CF9108950F931F93E6
S11310A0CF93DF93EC014930D0F42B818A8190E017
S11310B0820F911D689F9001699F300D11242C3778
S11310C031056CF4142F062F86EE94E071DC6B81ED
S11310D08A81680F609F602D112468831983DF91D2
S11310E0CF911F910F9108950F931F93CF93DF9387
S11310F0493058F46C3748F4C42FD62F8C0186EE4F
S113110094E0ECDBF801D083C183DF91CF911F9190
S11311100F910895EF92FF920F931F93CF93DF9354
S1131120EC01605285E0689F80011124E12CF12CD0
S1131130F801EE0DFF1DE95EFD4F649186EE94E02B
S1131140FCDB88818F5F88838FEFE81AF80A85E0DB
S1131150E816F10469F710E08A81181748F460E092
S113116086EE94E0EADB88818F5F88831F5FF4CF8B
S1131170DF91CF911F910F91FF90EF900895FC01A3
S11311804081238130E0240F311D4281240F311D21
S1131190213831050CF4BECF0895EF92FF920F93DE
S11311A01F93CF93DF937C01EB018B01025E1F4FF2
S11311B06991662339F06A3029F0C701ABDFC017A3
S11311C0D107B1F7DF91CF911F910F91FF90EF906D
S11311D00895E1E4F6E01082118281E0828385E0E3
S11311E08383CF0150CF6E3B21E0720780F06D5BAB
S11311F0714080E090E017D223E333E343E95FE3F7
S1131200A0D220E030E84EED53E47DD115C08DEB43
S113121091E09C01261B370BB90180E090E003D2DA
S113122023E333E343E95FE38CD29B01AC0160E049
S113123070E88EED93E466D1CAD1CB010895673D81
S113124021E0720780F0665D714080E090E0EBD1B0
S11312502AE939E949EB5FE374D220E030E04BEE50
S113126053E451D115C086ED91E09C01261B370B48
S1131270B90180E090E0D7D12AE939E949EB5FE38D
S113128060D29B01AC0160E070E08BEE93E43AD154
S11312909ED1CB010895CF93DF9384ED92E00BD9D7
S11312A0EC0184ED92E023D98C0F9D1F8E3992407E
S11312B0A0F3DF91CF910895CF93DF9384ED92E073
S11312C0FAD8EC0184ED92E012D9C80FD91F81E05D
S11312D0CE39D24008F080E0DF91CF9108956F922B
S11312E07F928F929F92AF92BF92CF92DF92EF92B2
S11312F0FF920F931F93CF93DF93CDB7DEB764971D
S11313000FB6F894DEBF0FBECDBF8C01C4DF7E01E3
S11313108BE0E80EF11CFE0131966F013E01F5E110
S11313206F0E711C4601570184ED92E018D9F50146
S1131330819391935F0184ED92E0F5D8F401819358
S113134091934F01A614B70479F780E090E0A12CA3
S1131350B12CF701219131917F01A20EB31EF60148
S1131360219131916F01820F931FE614F70489F7DD
S113137025E0E22EF12CB70147D2C80160DFF80165
S113138093838283C501B7013FD2C8012CDFF801E2
S11313909183808364960FB6F894DEBF0FBECDBFF1
S11313A0DF91CF911F910F91FF90EF90DF90CF903D
S11313B0BF90AF909F908F907F906F90089585E439
S11313C096E07ADF8823D9F3089585E496E0F7DF81
S11313D060E070E081E090E0E3C80F931F93CF9347
S11313E0DF93EC018B0185E496E079DFC801EDDF42
S11313F0F8018281938120813181398328839B8301
S11314008A83CE01DF91CF911F910F910895CF93DD
S1131410DF93CDB7DEB7CC56D2400FB6F894DEBF1B
S11314200FBECDBF879A8F9A269A82E3809380005D
S113143085E18093810010928500109284008AE5F2
S113144090E0909387008093860086E490E09093E8
S11314508B0080938A007E0183E0E80EF11CFA82FF
S1131460E9828DEC92E09C838B8381E08D831E82E4
S11314701F82188682EA92E09A8789871B868AE50A
S113148090E0DFD19F878E87892B09F4FFCF80E01E
S113149090E0EE85FF85E80FF91F108201968A35EA
S11314A09105B9F78AE5888B198A1C861D861A8AE4
S11314B08E010F5F1F4F5E01E7EAAE1AEDEFBE0A21
S11314C06801F801148A158A168A178A64E670E09E
S11314D081E396E0ADDCF801938B828B0A5F1F4FAA
S11314E00A151B0571F7C559DD4F1882CB56D2403A
S11314F0C459DD4F1882CC56D240C701D8DAC60190
S1131500BBDBFFCF5058BB27AA270ED0E0C0D1D0F9
S113151030F0D6D020F031F49F3F11F41EF4C6C051
S11315200EF4E095E7FBBCC0E92FE2D080F3BA17D4
S1131530620773078407950718F071F49EF5FAC0E3
S11315400EF4E0950B2EBA2FA02D0B01B9019001DA
S11315500C01CA01A0011124FF27591B99F0593F1E
S113156050F4503E68F11A16F040A22F232F342F66
S11315704427585FF3CF469537952795A795F040B4
S11315805395C9F77EF41F16BA0B620B730B840BC9
S1131590BAF09150A1F0FF0FBB1F661F771F881F81
S11315A0C2F70EC0BA0F621F731F841F48F48795D9
S11315B077956795B795F7959E3F08F0B3CF9395C8
S11315C0880F08F09927EE0F97958795089598D07E
S11315D088F09F5790F0B92F9927B751A0F0D1F018
S11315E0660F771F881F991F1AF0BA95C9F712C0A2
S11315F0B13081F09FD0B1E008959CC0672F782F5F
S11316008827B85F39F0B93FCCF38695779567950D
S1131610B395D9F73EF490958095709561957F4F79
S11316208F4F9F4F0895E89409C097FB3EF490951F
S11316308095709561957F4F8F4F9F4F9923A9F0A7
S1131640F92F96E9BB279395F69587957795679536
S1131650B795F111F8CFFAF4BB0F11F460FF1BC07A
S11316606F5F7F4F8F4F9F4F16C0882311F096E90D
S113167011C0772321F09EE8872F762F05C06623BB
S113168071F096E8862F70E060E02AF09A95660F74
S1131690771F881FDAF7880F9695879597F908952D
S11316A097F99F6780E870E060E008959FEF80EC11
S11316B0089500240A9416161706180609060895B4
S11316C000240A9412161306140605060895092E1A
S11316D00394000C11F4882352F0BB0F40F4BF2B89
S11316E011F460FF04C06F5F7F4F8F4F9F4F0895C9
S11316F057FD9058440F551F59F05F3F71F04795BF
S1131700880F97FB991F61F09F3F79F087950895A3
S1131710121613061406551FF2CF4695F1DF08C0C2
S1131720161617061806991FF1CF869571056105DF
S113173008940895E894BB2766277727CB0197F987
S113174008950BD0C4CFB5DF28F0BADF18F0952385
S113175009F0A6CFABCF1124EECFCADFA0F3959F3B
S1131760D1F3950F50E0551F629FF001729FBB2784
S1131770F00DB11D639FAA27F00DB11DAA1F649F30
S11317806627B00DA11D661F829F2227B00DA11DE3
S1131790621F739FB00DA11D621F839FA00D611D69
S11317A0221F749F3327A00D611D231F849F600D8A
S11317B0211D822F762F6A2F11249F5750408AF0C3
S11317C0E1F088234AF0EE0FFF1FBB1F661F771F4F
S11317D0881F91505040A9F79E3F510570F060CF8B
S11317E0AACF5F3FECF3983EDCF386957795679537
S11317F0B795F795E7959F5FC1F7FE2B880F911D6D
S11318009695879597F90895AA1BBB1B51E107C0CC
S1131810AA1FBB1FA617B70710F0A61BB70B881F7C
S1131820991F5A95A9F780959095BC01CD0108950B
S1131830EE0FFF1F0024001C0BBE0790F691E02D55
S113184009940F931F93CF93DF938230910510F483
S113185082E090E0E0914B06F0914C0620E030E00D
S1131860A0E0B0E0309719F14081518102811381E9
S113187048175907C8F08417950769F4109731F091
S113188012960C93129713961C9327C000934B0641
S113189010934C0622C02115310519F04217530745
S11318A018F49A01BD01EF01DF01F801DBCF211526
S11318B03105F9F0281B390B2430310580F48A8175
S11318C09B816115710521F0FB019383828304C020
S11318D090934C0680934B06FE01329644C0FE0161
S11318E0E20FF31F819391932250310939832883A6
S11318F03AC02091490630914A06232B41F42091A5
S113190002023091030230934A0620934906209143
S11319100002309101022115310541F42DB73EB783
S11319204091040250910502241B350BE0914906B5
S1131930F0914A06E217F307A0F42E1B3F0B281779
S1131940390778F0AC014E5F5F4F2417350748F034
S11319504E0F5F1F50934A0640934906819391931B
S113196002C0E0E0F0E0CF01DF91CF911F910F9131
S11319700895CF93DF93009709F481C0FC01329757
S113198013821282A0914B06B0914C06109781F4F9
S113199020813181820F931F2091490630914A069C
S11319A02817390751F5F0934A06E093490667C0B2
S11319B0ED0120E030E0CE17DF0740F44A815B817F
S11319C09E0141155105F1F0EA01F5CFD383C2839D
S11319D040815181840F951FC817D90759F4888114
S11319E09981840F951F0296918380838A819B81BC
S11319F0938382832115310529F4F0934C06E093F7
S1131A004B063DC0E901FB83EA8349915991C40F18
S1131A10D51FEC17FD0761F480819181840F951F18
S1131A200296E90199838883828193819B838A83C7
S1131A30E0E0F0E012968D919C911397009719F0D5
S1131A40FD01DC01F7CF8D919C9111979D012E5FD3
S1131A503F4F820F931F2091490630914A06281761
S1131A60390769F4309729F410924C0610924B060A
S1131A7002C013821282B0934A06A0934906DF91F2
S1131A80CF9108952F923F924F925F926F927F92DF
S1131A908F929F92AF92BF92CF92DF92EF92FF927A
S1131AA00F931F93CF93DF93CDB7DEB72B970FB66A
S1131AB0F894DEBF0FBECDBF6C017B018A01FC012F
S1131AC017821682838181FFBFC1CE0101963C013A
S1131AD0F6019381F70193FD859193FF81917F0135
S1131AE0882309F4ADC1853239F493FD859193FFC0
S1131AF081917F01853221F4B60190E0D6D1E8CFFF
S1131B00912C212C312CFFE1F315D8F08B3279F094
S1131B1038F4803279F08332A1F4232D20611DC082
S1131B208D3261F0803369F4232D216016C0832D3A
S1131B308260382EE32DE4603E2E2AC0F32DF86037
S1131B401DC037FC2DC020ED280F2A3040F08E3206
S1131B50B9F436FC75C1232D2064322E19C036FE2B
S1131B6006C08AE0989E200D1124922E11C0EAE04E
S1131B702E9E200D1124222EF32DF0623F2E08C03C
S1131B808C3621F4832D8068382E02C0883641F4C7
S1131B90F70193FD859193FF81917F018111B3CF6B
S1131BA0982F9F7D9554933028F40C5F1F4F9FE32B
S1131BB099830DC0833631F0833771F0833509F092
S1131BC055C020C0F801808189830E5F1F4F88248F
S1131BD08394912C530112C02801F2E04F0E511C42
S1131BE0F801A080B18036FE03C0692D70E002C008
S1131BF06FEF7FEFC5014ED14C018201F32DFF77CA
S1131C003F2E15C0280122E0420E511CF801A0808D
S1131C10B18036FE03C0692D70E002C06FEF7FEF24
S1131C20C5012DD14C01F32DF0683F2E820133FC08
S1131C3019C0822D90E088169906A0F4B60180E2BE
S1131C4090E033D12A94F5CFF50137FC859137FE26
S1131C5081915F01B60190E028D121102A9421E0FE
S1131C60821A91088114910479F7E1C0843611F045
S1131C70893639F5F80137FE07C0608171818281A8
S1131C8093810C5F1F4F08C060817181072E000C87
S1131C90880B990B0E5F1F4FF32DFF763F2E97FF96
S1131CA009C090958095709561957F4F8F4F9F4F98
S1131CB0F0683F2E2AE030E0A30133D1882E861845
S1131CC044C0853731F4232D2F7EB22E2AE030E034
S1131CD025C0932D997FB92E8F36C1F018F488351D
S1131CE079F0AEC0803719F0883721F0A9C0E92F08
S1131CF0E061BE2EB4FE0DC0FB2DF460BF2E09C002
S1131D0034FE0AC0292F2660B22E06C028E030E037
S1131D1005C020E130E002C020E132E0F801B7FE66
S1131D2007C060817181828193810C5F1F4F06C05F
S1131D306081718180E090E00E5F1F4FA301F1D0BC
S1131D40882E8618FB2DFF773F2E36FE0DC0232DDF
S1131D502E7FA22E891458F434FE0BC032FC09C025
S1131D60832D8E7EA82E05C0B82CA32C03C0B82CBE
S1131D7001C0B92CA4FE0FC0FE01E80DF11D808145
S1131D80803321F49A2D997EA92E09C0A2FE06C0A3
S1131D90B394B39404C08A2D867809F0B394A3FC59
S1131DA010C0A0FE06C0B21480F4280C922C9B181C
S1131DB00DC0B21458F4B60180E290E076D0B3942A
S1131DC0F8CFB21418F42B1802C0982C212CA4FEBE
S1131DD00FC0B60180E390E068D0A2FE16C0A1FC5B
S1131DE003C088E790E002C088E590E0B6010CC02B
S1131DF08A2D867851F0A1FE02C08BE201C080E2F8
S1131E00A7FC8DE2B60190E050D0891430F4B601FD
S1131E1080E390E04AD09A94F8CF8A94F301E80DD5
S1131E20F11D8081B60190E040D08110F6CF2220D0
S1131E3009F44ECEB60180E290E037D02A94F7CF71
S1131E40F6018681978102C08FEF9FEF2B960FB624
S1131E50F894DEBF0FBECDBFDF91CF911F910F91DC
S1131E60FF90EF90DF90CF90BF90AF909F908F90B6
S1131E707F906F905F904F903F902F900895FC015A
S1131E800590615070400110D8F7809590958E0FA1
S1131E909F1F0895FC016150704001900110D8F714
S1131EA0809590958E0F9F1F08950F931F93CF9346
S1131EB0DF93FB01238121FD03C08FEF9FEF2CC033
S1131EC022FF16C04681578124813581421753076A
S1131ED044F4A081B1819D012F5F3F4F3183208362
S1131EE08C93268137812F5F3F4F3783268314C01D
S1131EF08B01EC01FB010084F185E02D0995892B10
S1131F00E1F6D80116968D919C9117970196179634
S1131F109C938E931697CE01DF91CF911F910F91D1
S1131F200895FA01AA27283051F1203181F1E8946B
S1131F306F936E7F6E5F7F4F8F4F9F4FAF4FB1E0B8
S1131F403ED0B4E03CD0670F781F891F9A1FA11DB3
S1131F50680F791F8A1F911DA11D6A0F711D811DB4
S1131F60911DA11D20D009F468943F912AE0269F79
S1131F7011243019305D3193DEF6CF010895462FD8
S1131F804770405D4193B3E00FD0C9F7F6CF462FB9
S1131F904F70405D4A3318F0495D31FD4052419322
S1131FA002D0A9F7EACFB4E0A695979587957795DF
S1131FB06795BA95C9F700976105710508959B0166
S1131FC0AC010A2E06945795479537952795BA95EF
S1131FD0C9F7620F731F841F951FA01D0895F894FD
S1051FE0FFCF2D
S1131FE200004D0620002020202020202020202038
S1131FF22020205245462081204F4B0A003D2020BC
S113200220202020202020202020202020202020CA
S113201220200A003D3D3D3D3D3D3D3D3D3D3D3D94
S11320223D3D3D3D3D3D3D3D3D3D3D3D3D0A007116
S1132032776572747975696F70283738390A006167
S113204273646667686A6B6C5E293635340A007A93
S1132052786376626E6D5F3A2A2B3332310A00203E
S113206220202020202020212F2D302E2C0A004336
S11320724C522048454C5020424153450A0000002E
S11320820000000382031B038820812020202020DB
S11320922020202020202020202020802000892091
S11320A220204F50434A452000000000000306C888
S10720B205570500C5
S9030000FC
