S012000043616C63756C61746F722E7372656308
S113000068C3000090C300008EC300008CC30000CE
S11300108AC3000088C3000086C3000084C30000B4
S113002082C3000080C300007EC300007CC30000C4
S11300307AC3000078C3000076C3000074C30000D4
S113004072C3000070C300006EC300006CC30000E4
S11300506AC3000068C3000066C3000064C30000F4
S113006062C3000060C300005EC300005CC3000004
S11300705AC3000058C3000056C3000054C3000014
S113008052C3000050C300004EC300004CC3000024
S11300904AC3000048C3000046C3000044C3000034
S11300A042C3000040C300003EC300003CC3000044
S11300B03AC3000038C3000036C3000034C3000054
S11300C032C3000030C300002EC30000E808EA0871
S11300D0ED08EF08F108F80805091109F30BFE0B08
S11300E0090C140CCA0BBF0BE80BD50B270C3E0CE8
S11300F0CE0CCE0C550C690C910CA50C7D0C036E2A
S1130100DB363D9A9999993DABAAAA2A3E00000094
S1130110803F084AD73B3BCE016E84BCBFFDC12F54
S11301203D6C74319ABD56833DDA3D00C77F11BEE4
S1130130D9E4BB4C3E916BAAAABE000000803F07E5
S11301402C7AA5BA6CC590DA3B9365FC8BBC53F84A
S113015010FD3C5692834DBD879D3AB63DCBC9BF39
S11301605BBE73DA0FC93F05A84CCDB2D44EB93883
S113017036A9020C50B9918688083CA6AAAA2ABEC0
S1130180000000803F08000000BE922449123EABEC
S1130190AAAA2ABECDCCCC4C3E00000080BEABAA9D
S11301A0AAAA3E00000000BF000000803F0000003B
S11301B00000084178D3BB4387D1133D190E3CC3DB
S11301C0BD4282AD2B3E68EC8276BED98FE1A93E5A
S11301D04C80EFFFBE01C4FF7F3F0000000000061B
S11301E064EC1B3C04BC163E3BE5B93CC93C37C23D
S11301F09E5A3D660498083EEA69AAAA3E00000099
S1130200803F07634236B79BD8A71A39685618AEA1
S1130210BAAB558C1D3CB7CC5763BD6DEDFD753E37
S1130220F6177231BF000000803F696E6600494EC8
S113023046006E616E004E414E0000407A10F35A43
S113024000A0724E18090010A5D4E80000E8764812
S1130250170000E40B54020000CA9A3B000000E1BE
S1130260F505000080969800000040420F00000051
S1130270A08601000000102700000000E803000031
S113028000006400000000000A00000000000100FB
S1130290000000002C76D888DC674F0823DFC1DF1C
S11302A0AE59E1B1B796E5E3E453C63AE65199761F
S11302B096E8E6C28426EB898C9B62ED407C6FFC59
S11302C0EFBC9C9F40F2BAA56FA5F490055A2AF79B
S11302D05C936B6CF9676DC11BFCE0E40D47FEF5A4
S11302E020E6B500D0ED902E03009435770500800C
S11302F0841E080000204E0A000000C80C3333336B
S1130300330F986E12831141EF8D2114893BE6550A
S113031016CFFEE6DB18D1844B381BF77C1D901DED
S1130320A4BBE424203284725E228100C9F124EC4F
S1130330A1E53D274E414E494E495459494E46CDBB
S1130340CCCC3D0AD7233C17B7D13877CC2B329588
S113035095E6241FB14F0A000020410000C8420066
S1130360401C4620BCBE4CCA1B0E5AAEC59D74052B
S113037017082DC80516D8F8C91834082DCAD8F698
S1130380082DCB17882D79CC17877ACBCD89F72EFA
S11303907DCE88F97BCDCF2C75D1F2D008145F8443
S11303A07115245F847725365F846537465F8372D1
S11303B047585F837459695F82796A7B5F82757C71
S11303C0895F81698A9C60806F9DAD618170AEBEDA
S11303D05F8228BFCF608237D1E1608138E2F36069
S11303E08139061383A2611423839F73243683A067
S11303F06437467F9F664757829D675869809D682A
S11304006A7A829E6A7B8C819D6B8D9D809D6C9E99
S1130410AF7F9A5EB0BE819C29BFD0829D36D1E168
S1130420829C35E2F2829E340714A0BC7A1523A084
S1130430BC7824349FBC6335459EB87646579EBB32
S11304406258689EBB6E69799EBA6D7A8A9EBB209B
S11304508B9B9EB83A9CAD9BB92AAEBF9BB92BC06F
S1130460D09BB833D1E19BB832E1F29AB8318E9C7B
S1130470B9D4219DAEB9D32FAFBFB9D32DC0CFBC52
S1130480D830D0DFBAD82EE0F2BCD82C072BD7F165
S1130490C82D64D8F0C96A98D7F0CA99BE172ACB78
S11304A0C4D7102FCCD8F51133CD000000000000C4
S11304B0005F00000007000700147F147F14242A43
S11304C07F2A12231308646236495522500005031B
S11304D00000001C2241000041221C00082A1C2AA2
S11304E00808083E080800503000000808080808FA
S11304F0006060000020100804023E5149453E009F
S1130500427F400042615149462141454B31181414
S1130510127F1027454545393C4A49493001710944
S113052005033649494936064949291E003636002D
S11305300000563600000008142241141414141448
S113054041221408000201510906324979413E7ED4
S11305501111117E7F494949363E414141227F4173
S113056041221C7F494949417F090901013E41411A
S113057051327F0808087F00417F41002040413FFD
S1130580017F081422417F404040407F0204027FE3
S11305907F0408107F3E4141413E7F090909063E20
S11305A04151215E7F0919294646494949310101D2
S11305B07F01013F4040403F1F2040201F7F201803
S11305C0207F6314081463030478040361514945CC
S11305D04300007F4141020408102041417F000094
S11305E00804020408404040404000010204002086
S11305F0545454787F48444438384444442038445C
S113060044487F3854545418087E0901020814548D
S1130610543C7F0804047800447D40002040443D5D
S113062000007F10284400417F40007C04180478B7
S11306307C0804047838444444387C1414140808AE
S11306401414187C7C080404084854545420043FAF
S11306504440203C4040207C1C2040201C3C403036
S1130660403C44281028440C5050503C4464544CA2
S113067044000836410000007F00000041360800B5
S113068008082A1C08081C2A080808083E1C080830
S11306901C3E08087C047414141F1017141414143A
S11306A074047C141417101F7F007F000000007F67
S11306B0007F080C3E0C0810307C30107F41414113
S11306C07F001504180410077D10A710BC10AC138C
S11306D0771411241FBECFEFD1E2DEBFCDBF12E0ED
S11306E0A0E0B2E0E6E8F7E400E00BBF02C0079048
S11306F00D92AA3FB107D9F726E0AAEFB2E001C0F4
S11307001D92A938B207E1F713E0C9E6D3E004C0AB
S11307102197FE010E941F1BC136D107C9F70E9411
S11307202B160C94C1236CCC87E880937A0010922A
S11307307C0080988198829883988498859888987A
S113074089988A988B988C988D980895819A849A20
S1130750899A82E080937C0080917A0080648093FF
S11307607A0080917A0086FDFCCF209178008091F8
S1130770790081988498899890E0982F8827820F2F
S1130780911D0895859A809A889A83E080937C00CD
S113079080917A00806480937A0080917A0086FD4B
S11307A0FCCF209178008091790085988098889872
S11307B090E0982F8827820F911D0895809A829A3D
S11307C0889A81E080937C0080917A008064809391
S11307D07A0080917A0086FDFCCF20917800809188
S11307E0790080988298889890E0982F8827820FC3
S11307F0911D0895839A819A8B9A10927C0080911E
S11308007A00806480937A0080917A0086FDFCCF20
S11308102091780080917900839881988B9890E05A
S1130820982F8827820F911D08958AEF92E07CCF3C
S11308301092FB020895CF93DF9300D000D0CDB780
S1130840DEB769837A838B839C8389819A81AB81A8
S1130850BC81AC01BD014150510961097109498351
S11308605A836B837C83892B8A2B8B2B71F70F9094
S11308700F900F900F90DF91CF91089595E095BD63
S113088090E02DEE981731F026BDA89BFECFA89AD4
S11308909F5FF8CF0895FF920F931F93CF93DF9339
S11308A0CDB7DEB72A970FB6F894DEBF0FBECDBF23
S11308B08C0161E08BE796E00E94AF1340E060E0BA
S11308C08BE796E00E94BE1366E072E08BE796E049
S11308D00E94411461E08BE796E00E94AF1341E06F
S11308E060E08BE796E00E94BE136DE172E08BE757
S11308F096E00E94411460E08BE796E00E94AF13FB
S113090042E060E08BE796E00E94BE1364E372E08D
S11309108BE796E00E94411464E08BE796E00E9426
S1130920AF1343E060E08BE796E00E94BE136FE4F0
S113093072E08BE796E00E94411444E060E08BE7AC
S113094096E00E94BE136FE572E08BE796E00E948A
S1130950411445E060E08BE796E00E94BE136FE629
S113096072E08BE796E00E94411446E060E08BE77A
S113097096E00E94BE136FE772E08BE796E00E9458
S1130980411461E08BE796E00E94AF1347E060E01A
S11309908BE796E00E94BE136FE872E08BE796E067
S11309A00E944114D80114968C918F3F79F140E054
S11309B060E08BE796E00E94BE13F80184816AE050
S11309C00E94FF1AF82E61E4690F8BE796E00E94FB
S11309D0331461E36F0D8BE796E00E943314D80162
S11309E014968C914AE0BE016F5F7F4F90E00E94A5
S11309F0D81D40E064E08BE796E00E94BE13BE0180
S1130A006F5F7F4F8BE796E00E945D1441E061E0E9
S1130A108BE796E00E94BE13D8011596ED91FC91E8
S1130A201697628173818BE796E00E9441142A969F
S1130A300FB6F894DEBF0FBECDBFDF91CF911F91EB
S1130A400F91FF9008950F931F93CF93DF9300D0DE
S1130A5000D0CDB7DEB78C016FE776E0CE0101960A
S1130A600E948215AE014F5F5F4FF8016281C80199
S1130A7002964AD00F900F900F900F90DF91CF9174
S1130A801F910F91089520EE240F2F3520F4FC01BF
S1130A90438384E008954C3C31F04D3C31F0483CB4
S1130AA051F08BE0089589E008958BE796E00E9469
S1130AB0B21385E0089586E00895861718F595E049
S1130AC0899FD0011124FD01E159FC4F5491FD018E
S1130AD0EF58FC4F9491FD01E059FC4F3491FD0116
S1130AE0EE58FC4FE491541758F4431748F4921706
S1130AF038F42E1728F4FD01ED58FC4F8491089525
S1130B008F5FDBCF80E00895FA01662389F06130BE
S1130B10F1F42281338136952795369527954081C6
S1130B205181569547955695479569E080E00EC0EA
S1130B3022813381369527953695279540815181B9
S1130B40569547955695479562E489E0B6CF80E07F
S1130B500895CF93DF931F92CDB7DEB71982611149
S1130B6005C06B9A739A6C9A749806C06130B9F494
S1130B706C9A749A6B9A73986F9A77986E9A769A1D
S1130B806D9A7598000000001AB889B189836D9A2E
S1130B90759A6C9A749A6B9A739A898101C080E0F1
S1130BA00F90DF91CF9108950F931F93CF93DF930D
S1130BB08C01D62FC42F6C2FC801CBDF87FDFBCF50
S1130BC08FEF8AB96E9A76986F9A7798C11105C09B
S1130BD06B9A739A6C9A749804C06C9A749A6B9A10
S1130BE07398DBB96D9A759A000000006D9A759838
S1130BF0DF91CF911F910F910895CF93DF93EC0173
S1130C0068816295669566956370CE01A2DF87FD63
S1130C10F7CF8881803428F06B9A739A6C9A749811
S1130C2004C06C9A749A6B9A73981AB81BB86F9A2A
S1130C30779A6E9A769A6D9A759A0000000089B137
S1130C40000000006D9A759898819F5F9883DF91EA
S1130C50CF910895FF920F931F93CF93DF93EC01ED
S1130C60162F6883498300E0486BF42E402F60E41C
S1130C70CE019ADF402F6F2DCE0196DF402F60EC1E
S1130C80CE0192DF0F5F023089F7012F029506959E
S1130C9006950370612F6F736064402FCE0184DF6B
S1130CA0402F6F2DCE01DF91CF911F910F91FF90B7
S1130CB07BCF1F93CF93DF93EC01162F8881803471
S1130CC021F4498160E4CE01C5DF8881829586954F
S1130CD0869583708A836A81CE013BDF87FDFBCFD3
S1130CE08A81882329F06B9A739A6C9A749804C049
S1130CF06C9A749A6B9A7398000000008FEF8AB90B
S1130D006E9A76986F9A779A1BB9000000006D9AD4
S1130D10759A000000006D9A759888818F5F8883AA
S1130D20DF91CF911F910895262F220F620F660F36
S1130D3091CF0F931F93CF93DF938C01C0E04C2F7F
S1130D4060E0C80187DFD0E060E0C801B2DFDF5FA8
S1130D50D038D1F7CF5FC83091F76C9A749A6B9AF8
S1130D60739ADF91CF911F910F910895CF93DF93E1
S1130D70EC0140E062E018DF41E062E0CE0114DF04
S1130D808AE07CDD40E06FE3CE010EDF41E06FE3FB
S1130D90CE010ADFCE01CDDF40E060E0CE01DF917D
S1130DA0CF9158CFFC011082118212822FE7238346
S1130DB02FEF2AB91BB86F9A77986E9A76986D9A26
S1130DC075986C9A749A6B9A739A6A9A729ACECF3F
S1130DD0EF92FF920F931F93CF93DF93EC01062FB3
S1130DE0142FF42EF694F694F6944F2D33DFCE019F
S1130DF004DFCE0102DFE82E4F2D602FCE012ADF63
S1130E00177061E070E001C0660F1A95EAF76E2969
S1130E10CE01DF91CF911F910F91FF90EF9049CFB9
S1130E208CE095E0BFCF0F931F93CF93DF9300D057
S1130E3000D0CDB7DEB78C016FE776E0CE01019626
S1130E400E948215AE014F5F5F4FF8016281C801B5
S1130E5002965ADE0F900F900F900F90DF91CF9172
S1130E601F910F910895CF92DF92EF92FF920F930B
S1130E701F93CF93DF93EA01FB01C080D180E2800E
S1130E80F38020E836E948E15BE4C701B6010E943B
S1130E90E0181816D4F12EEF33E244E759ECC701F9
S1130EA0B6010E94091787FD30C02EEF33E244E7F4
S1130EB059E4C701B6010E940917181654F027E136
S1130EC037EB41ED58E3C701B6010E94E01818164C
S1130ED0A4F02EEF33E244E759ECC701B6010E94B7
S1130EE0E01887FD12C027E137EB41ED58EBC7014D
S1130EF0B6010E94091787FF08C08E0126E046E06C
S1130F00C701B6010E94AD1B07C000E024E0AE019A
S1130F10C701B6010E94281BDF91CF911F910F9149
S1130F20FF90EF90DF90CF9008958F929F92AF92B1
S1130F30BF92CF92DF92EF92FF920F931F93CF93C2
S1130F40DF93CDB7DEB7C056D1090FB6F894DEBF34
S1130F500FBECDBF8C0161E08BE796E00E94AF131A
S1130F6040E060E08BE796E00E94BE1368EA72E01E
S1130F708BE796E00E94411440E062E28BE796E042
S1130F800E94E513D80115966C916F5B8BE796E090
S1130F900E94331440E06BE58BE796E00E94E51372
S1130FA0F80165816E5B8BE796E00E94331442E0A2
S1130FB060E08BE796E00E94BE13D80116966C9110
S1130FC06F5C8BE796E00E94331445E060E08BE7AA
S1130FD096E00E94BE13F80166816E5C8BE796E092
S1130FE00E94331447E060E08BE796E00E94BE1352
S1130FF06EEB72E08BE796E00E94411447E0F42E1A
S113100036E0E32E4F2D6E2D8CE095E0E1DEA6E078
S1131010EA0EBEE7EB12F6CFE8E1FE0EFFE4FF12A4
S1131020EFCF23E0F22E4F2D66E08CE095E0D0DE8A
S1131030F4E0FF0E2FE3F212F6CF93E0F92E4F2DDA
S113104062E48CE095E0C4DE84E0F80E9FE3F912DC
S1131050F6CF83E0F82E4F2D6EE78CE095E0B8DEF6
S113106024E0F20E8FE3F812F6CFD80116969C9185
S1131070169715968C91BAE09B9F800D1124F80168
S1131080E380F480282F30E06E01F1E5CF0ED11C0F
S1131090D70198E0899FA00DB11D112414964D919C
S11310A05D916D917C911797F60140835183628322
S11310B073832F5F3F4F40E5429FC001439F900DD4
S11310C01124E80EF91EF701448155816681778168
S11310D0F60144835583668377831C968D919D9195
S11310E00D90BC91A02D80879187A287B387F701CB
S11310F084859585A685B785F60184879587A68717
S1131100B7875601CE0101967C014C01A701B501B8
S1131110C801A9DE94E0A90EB11CA4E1EA0EF11CF9
S1131120CE14DF0499F742E06AE08BE796E00E9470
S1131130E513B4018BE796E00E945D1445E06AE094
S11311408BE796E00E94E513BE016B5E7F4F8BE751
S113115096E00E945D14C05ADF4F0FB6F894DEBFCC
S11311600FBECDBFDF91CF911F910F91FF90EF90F4
S1131170DF90CF90BF90AF909F908F900895FC0127
S11311809681992311F0915096830895FC019681DC
S1131190983010F49F5F96830895FC0195819923FC
S11311A011F0915095830895FC019581983010F4C5
S11311B09F5F9583089550E0FA01E85CF109E830F7
S11311C0F10508F044C0DC01EA59FF4F0C941F1BE1
S11311D0D6DF01C0DBDF81E00895DFDFFCCFE4DF91
S11311E0FACF16969C91169715968C91159714C064
S11311F016968C911697880F8E5F982F990F990FDA
S1131200890F15969C91159719C016969C9116975F
S113121015968C9115978F5F2AE0929F800D11246B
S11312200EC016968C911697880F8E5F982F990F83
S1131230990F890F15969C9115979F5F890F1796A3
S11312408C938BE796E00E94B21382E0089580E0CD
S11312500895CF93DF93CDB7DEB7CA55D1090FB642
S1131260F894DEBF0FBECDBF6C015C0188ECA81AF8
S11312708CEFB80A76019FECE91A9CEFF90A160183
S1131280A9EC2A1AACEF3A0A4601B2E08B0E911C83
S11312903601EAE06E0E711CD6018D919C91DC0141
S11312A0ED91FC91408051800280F381E02D0995FD
S11312B0482FF5016081D6018D919C91F201099529
S11312C0D5018C93843009F474C030F4813009F46E
S11312D06DC0823051F0E0CF863009F4BBC008F411
S11312E08AC0893009F4D0C0D7CF8BE0F501808360
S11312F0D60119968C9119971E968C93F1018083CF
S1131300F60198E0899FE00DF11D1124618972892D
S1131310D70111968C911197811103C014962C91C9
S113132001C020E030E08E010F5F1F4F40E050E02D
S11313308BE696E0D1D780E0F7019481891740F4D9
S11313400280F381E02DE80FF11D10828F5FF4CF4E
S11313501582108280E0F7019181911121C03481BE
S11313608317F0F4E1E0F0E0EC0FFD1FE80FF11D4E
S11313709081992399F0D70115962C9115973217DE
S113138069F01296ED91FC911397E20FF11D908391
S113139015969C9115979F5F15969C938F5FDBCF55
S11313A0F60171826082C30176DA76CFD5011C9290
S11313B082C08BE0F5018083D70111968C9111973F
S11313C081115EC015968C91159714969C91149773
S11313D0891709F455C0F60195851296ED91FC9193
S11313E01397E80FF11D908315968C9115978F5FD5
S11313F015968C9345C0F5011082D1014C90512C67
S1131400F701028113818181811102C0248101C00D
S113141020E030E083E0440C551C8A95E1F74C0C45
S11314205D1CD20151966D917C91529740E050E041
S11314308BE696E0B1D7B70180E195E054D4F20190
S1131440658B768B878B908FD6018D929C92C4018D
S11314506CDD22CF8BE0F501808380E0D701149608
S11314609C911497891748F41296ED91FC91139767
S1131470E80FF11D10828F5FF1CFF7011582108202
S1131480D6018D919C911AC08BE0F5018083D70120
S113149015968C911597882371F01296ED91FC9115
S11314A01397E80FF11D3197108215968C911597BB
S11314B0815015968C93F60180819181DC01ED9128
S11314C0FC910480F581E02D0995E6CEFC011082A3
S11314D01182128213821482158216821782089551
S11314E0982F8D7F8D3299F086ED890F823078F0B8
S11314F0892F8F7D8E3559F09A3349F0892F8B7F50
S1131500813229F081E09C3719F080E0089581E070
S11315100895CF9390ED980F9A3010F481E021C094
S11315208E3211F482E01DC0C82FDADF811106C0AB
S113153088ED8C0F823020F486E013C083E011C064
S11315408FEB8C0F8A3110F484E00BC08FE98C0F81
S11315508A3110F485E005C0C33211F487E001C07C
S113156080E0CF910895282FFC018E2F821B8617CF
S113157010F41192FACF0895CF93DF93EB018C818D
S1131580823011F41D82BBC0833031F588818D32E5
S113159099F048F48A32A1F08B3209F0B0C081E0AE
S11315A08D838DE016C08F3279F08E3509F0A7C097
S11315B084E08D8381E10DC081E08D838EE009C0DC
S11315C082E08D839FE003C082E08D8390E19E835F
S11315D095C08E8382E092C0863009F090C085E089
S11315E08D8364ED72E0CE010E94CF1D892B19F426
S11315F081E08E838F8369ED72E0CE010E94CF1D5E
S1131600892B21F482E08E8381E08F836EED72E07A
S1131610CE010E94CF1D892B21F483E08E8381E0CB
S11316208F8363EE72E0CE010E94CF1D892B21F4DB
S113163084E08E8381E08F8363ED72E0CE010E94AB
S1131640CF1D892B21F485E08E8381E08F8368EDA3
S113165072E0CE010E94CF1D892B21F486E08E8397
S113166081E08F836DED72E0CE010E94CF1D892B46
S113167021F487E08E8381E08F8362EE72E0CE01F5
S11316800E94CF1D892B21F488E08E8381E08F8313
S113169067EE72E0CE010E94CF1D892B21F489E010
S11316A08E8381E08F836AEE72E0CE010E94CF1DAB
S11316B0892B21F48AE08E8381E08F836EEE72E0C1
S11316C0CE010E94CF1D892B21F48CE08E8382E011
S11316D08F8362EF72E0CE010E94CF1D892B21F42B
S11316E082E18E8383E08F8366EF72E0CE010E94F5
S11316F0CF1D892B21F483E18E8383E08F83DF91D7
S1131700CF910895FC0121818281938121110FC021
S11317102481261730F028E0629F800D911D11244A
S1131720089538E0239F800D911D11240897089592
S1131730FC018181811106C09581992329F0915082
S11317409583089582E0089581E00895EF92FF92D1
S11317500F931F93CF93DF93EC0160E0D3DF8C01F1
S1131760DC011696EC918E2F90E0FC013197E1316B
S1131770F10508F013C1E259FF4F0C941F1B61E0FF
S1131780CE01C0DFFC0160817181828193810E945E
S1131790571667C061E0CE01B5DFDC016D917D9124
S11317A08D919C910E94CA1673C061E0CE01AADF9C
S11317B0FC0160817181828193810E94E1169B0109
S11317C0AC0160E070E080E89FE30E94101749C01C
S11317D061E0CE0197DFDC016D917D918D919C914B
S11317E00E94E11655C061E0CE018CDFFC016081EE
S11317F07181828193810E94E51933C061E0CE0139
S113180081DFDC016D917D918D919C910E940D177A
S11318103FC061E0CE0176DFFC016081718182818D
S113182093810E94301A1DC061E0CE016BDFDC01A0
S11318306D917D918D919C910E94301A9B01AC0118
S113184060E070E080E89FE30E94101721C061E02F
S1131850CE0158DFFC0160817181828193810E94F5
S1131860F618D8016D937D938D939C93139760E044
S1131870CE0148DF21E0FC01248388C061E0CE0171
S113188041DFDC016D917D918D919C910E94EB185B
S1131890F801608371838283938360E0CE0132DF39
S11318A021E0DC0114962C9371C062E0CE012ADFA2
S11318B07C0161E0CE0126DFFC012081318142817F
S11318C05381D7016D917D918D919C910E946616F3
S11318D04FC062E0CE0116DF7C0161E0CE0112DF71
S11318E0FC012081318142815381D7016D917D9129
S11318F08D919C910E9465163BC061E0CE0102DF90
S11319007C0162E0CE01FEDEF7012081318142815B
S11319105381DC016D917D918D919C910E94991967
S113192027C062E0CE01EEDE7C0161E0CE01EADE9A
S1131930FC012081318142815381D7016D917D91D8
S11319408D919C910E94361913C062E0CE01DADEBB
S11319507C0161E0CE01D6DEFC012081318142812F
S11319605381D7016D917D918D919C910E941017A7
S1131970F801608371838283938360E0CE01C2DEC9
S113198021E0DC0114962C93CE01D2DECE01DF914E
S1131990CF911F910F91FF90EF90CACEDF91CF911D
S11319A01F910F91FF90EF900895AF92BF92CF9245
S11319B0DF92EF92FF920F931F93CF93DF93CDB7F4
S11319C0DEB728970FB6F894DEBF0FBECDBF8C01EB
S11319D0E62E28E0629FC00111240E94CC1BF8016E
S11319E093838283892B21F0C12CD12CF12C01C04B
S11319F0FFCFF801FE14A1F0A280B380AC0CBD1C93
S1131A00CE01019663DD88E0FE013196D501019097
S1131A100D928A95E1F7F394F8E0CF0ED11CE9CF4B
S1131A20F48215821082118228960FB6F894DEBFD4
S1131A300FBECDBFDF91CF911F910F91FF90EF901B
S1131A40DF90CF90BF90AF900895CF93DF931F9214
S1131A50CDB7DEB719822981FC01828193810E946E
S1131A60641C0F90DF91CF910895CF93DF93EC0125
S1131A708981811116C08D819C818917A1F0AA8169
S1131A80BB8198E0899FA00DB11D112488E0FB0162
S1131A9001900D928A95E1F78D818F5F8D8380E0AF
S1131AA003C082E001C081E0DF91CF910895FC0181
S1131AB03181258182819381311107C038E0239FD0
S1131AC0800D911D11240897089538E0239F800DFF
S1131AD0911D11240895FC01818122813381882381
S1131AE011F0C90108958481861720F0C901860F79
S1131AF0911D089590E00197820F931F08954F92CE
S1131B005F926F927F928F929F92AF92BF92CF9289
S1131B10DF92EF92FF920F931F93CF93DF937C0199
S1131B208B01FB01C581C13049F460E0C801D3DFFA
S1131B30FC01808180538A3008F4B6C06AE085E5F0
S1131B4096E011DD60E0C801C6DFFC018081E1DCC4
S1131B50682EB12CD0E0712CC0E042E0542E8824D1
S1131B60839456E0452EF8018581B81608F09AC092
S1131B70992493949B0C692DC801ADDFFC018081ED
S1131B80C8DCA82E8FEF860D823090F56B2DC8012E
S1131B90A2DFFC018081E72DF0E0EB5AF94F80834E
S1131BA073948FEF8A0D823008F44EC0772009F4C5
S1131BB04BC0E72DF0E0EB5AF94F1082CC2ED12C1C
S1131BC085E596E00E94ED1C33E0CC0CDD1C3A95D3
S1131BD0E1F7F701EC0DFD1D65837683878390871C
S1131BE081866AE085E596E0BEDCCF5F712C2CC06F
S1131BF0F3E06F1213C0CC2ED12C6B2DC8016BDF18
S1131C00FC01808123E0CC0CDD1C2A95E1F7F7016F
S1131C10EC0DFD1D85831682618615C0F6E06F12FA
S1131C2013C0CC2ED12C6B2DC80155DFFC01808153
S1131C3093E0CC0CDD1C9A95E1F7F701EC0DFD1D4A
S1131C40858316825186CF5F8CEF860D823018F023
S1131C50B92C6A2C88CFCC2ED12C6B2DC8013BDF3C
S1131C60FC01208183E0CC0CDD1C8A95E1F7C701DF
S1131C708C0D9D1DFC01ED0FF11D2583DF5F2CEF05
S1131C802A0D223028F3D43030F4FC01ED0FF11D7D
S1131C901582DF5FF8CFF701EC0DFD1D4186CF5FA4
S1131CA0D0E0D6CFF7010CC0F701C187F8018281DB
S1131CB093810E94ED1CF701658376838783908767
S1131CC0C0838C2FDF91CF911F910F91FF90EF90E4
S1131CD0DF90CF90BF90AF909F908F907F906F9048
S1131CE05F904F9008959F92AF92BF92CF92DF92F0
S1131CF0EF92FF920F931F93CF93DF93CDB7DEB78D
S1131D00A2970FB6F894DEBF0FBECDBF8C01F7DEED
S1131D107E0189E0E80EF11CC701D8DB64E1CE0145
S1131D204D9643DE64E1CE0147963FDE6AE0CE0184
S1131D3041963BDED12CBE2CAF2CF8018081D81605
S1131D4008F025C188E0D89EE00DF11D11243596D8
S1131D5088E0AB2DBA2D01900D928A95E1F7B70179
S1131D60C8010ADC8D858230C9F088F4813009F01D
S1131D700CC188E0F701DE01119601900D928A955D
S1131D80E1F7BE016F5F7F4FCE014D96FDC08330FA
S1131D9009F472C0863009F47CC0F7C089858832A2
S1131DA009F477C05EE1C52ECE01479680DEFC01C2
S1131DB08081883221F4CE014796BADCE6C098E0EF
S1131DC0DE01119601900D929A95E1F7BE016F5FC5
S1131DD07F4FCE01419649DECE014796A9DCCE0164
S1131DE04D9665DEFC0198E0DE01119601900D929E
S1131DF09A95E1F7BE016F5F7F4FCE01419635DEC4
S1131E00CE014D9695DCCE014D9651DEFC0198E055
S1131E10DE01119601900D929A95E1F7BE016F5F74
S1131E207F4FCE01419621DECE014D9681DCCE015D
S1131E3041968CDC60E0CE01419664DCFC0198E0C4
S1131E40DE01119601900D929A95E1F7BE016F5F44
S1131E507F4FCE014D9609DE48E2942E8E89811182
S1131E6004C0CA94C110A0CF90C0CE01419660DCDA
S1131E709A949110F3CFF5CF8C8D882309F476C012
S1131E80CE01479614DEFC012081283209F0FEC001
S1131E906DC088E0F7016DC09E84CE01479607DED1
S1131EA0FC012581921609F461C08081883209F40D
S1131EB05DC0CA94CC2009F459C0CE014796F7DD21
S1131EC0FC0198E0DE01119601900D929A95E1F7DC
S1131ED0BE016F5F7F4FCE014196C7DDCE014796AD
S1131EE027DCCE014D96E3DDFC0198E0DE0111967E
S1131EF001900D929A95E1F7BE016F5F7F4FCE017D
S1131F004196B3DDCE014D9613DCCE014D96CFDD67
S1131F10FC0198E0DE01119601900D929A95E1F78B
S1131F20BE016F5F7F4FCE0141969FDDCE014D967E
S1131F30FFDBCE0141960ADC60E0CE014196E2DB94
S1131F40FC0198E0DE01119601900D929A95E1F75B
S1131F50BE016F5F7F4FCE014D9687DD38E2932E31
S1131F608E8981119CC08C8D811196CF88E0EB2DD8
S1131F70FA2DDE01119601900D928A95E1F7BE01CA
S1131F806F5F7F4FCE01479670DDD394D6CE28E2A3
S1131F90F22E8C8D811102C0F12C61C0CE014796C6
S1131FA086DDFC0198E0DE01119601900D929A9570
S1131FB0E1F7BE016F5F7F4FCE01419656DDCE0142
S1131FC04796B6DBCE014D9672DDFC0198E0DE014A
S1131FD0119601900D929A95E1F7BE016F5F7F4FC4
S1131FE0CE01419642DDCE014D96A2DBCE014D9647
S1131FF05EDDFC0198E0DE01119601900D929A9548
S1132000E1F7BE016F5F7F4FCE0141962EDDCE0119
S11320104D968EDBCE01419699DB60E0CE01419670
S113202071DBFC0198E0DE01119601900D929A9506
S1132030E1F7BE016F5F7F4FCE014D9616DD98E24A
S1132040E92E8C8D811104C0FA94F110A2CFA4CF93
S1132050CE0141966DDBEA94E110F3CFF5CFF801A0
S11320608081F81618F56F2DCE014D964BDBFC01DF
S1132070D80188E0F89EA00DB11D1124159698E0B2
S113208001900D929A95E1F7F394E9CF2E85FC0126
S11320908581281708F0FDCE8EE1C82E0ECFCE0123
S11320A0419646DB9A9491105BCF5DCFF801108284
S11320B0C580D680E780F084C182D282E382F48234
S11320C0CE014196C2DCCE014796BFDCCE014D96CF
S11320D0BCDCC701B601A2960FB6F894DEBF0FBEF2
S11320E0CDBFDF91CF911F910F91FF90EF90DF90C3
S11320F0CF90BF90AF909F900895CF93DF931092AD
S113210010051092110510921205109213051092E9
S11321101405C0E0D0E0CE018B5E9A4FD7D9289643
S1132120C03481E0D807B9F7DF91CF910895E4E690
S1132130F0E080818D7F808388E18093C1000895E1
S1132140F6DF1092C50083E18093C400089589E608
S113215096E0F6CF84B1876084B984B184B985B13F
S1132160876085B985B185B981E58CBD8DB5816000
S11321708DBD2198299808958AE696E0EBCF6623D1
S113218029F0613029F4869A8E9802C0869A8E9A34
S1132190FC0160830895FC01108214821382128270
S11321A01182158217821682118610861386128672
S11321B0158614861686178680EF84B98FEF81B949
S11321C087B9869A8E9A999AA19A9A9AA29A249AE7
S11321D02C9A2F9A1AB81BB808958FEF8AB99A9A35
S11321E0A29862B978B92F98999AA1989A9AA29AC2
S11321F000004BB9999AA19A9A9AA29A249A2C9A75
S11322002F9A1AB81BB808952F9A249A2C98999A41
S1132210A1989A9AA29A62B978B91AB81BB8000020
S113222089B1999AA19A9A9AA29A249A2C9A2F9A45
S11322301AB81BB80895AF92BF92CF92DF92EF9273
S1132240FF920F931F93CF93DF93EC017A01888160
S113225090E090E4899F902D88271124681B790BC6
S113226085E0869F5001879FB00C1124850100955D
S11322701095B801CE01C8DFC82E662777276A19E2
S11322807B09CE01C1DFA82EB8016E5F7F4FCE015E
S1132290BBDFD82EB8016D5F7F4FCE01B5DFB82EFE
S11322A0B8016C5F7F4FCE01AFDF2C2D30E03A29AF
S11322B0F701338322832D2D30E03B2931832083A2
S11322C08483DF91CF911F910F91FF90EF90DF9066
S11322D0CF90BF90AF9008958F929F92AF92BF928C
S11322E0CF92DF92EF92FF920F931F93CF93DF93DE
S11322F000D000D01F92CDB7DEB75C014B016A015C
S1132300790164E0769F612D77271124C50137DFB9
S1132310AE014F5F5F4FB401C5018DDF8B819C819E
S11323208C159D0520F481E0F501868723C0498141
S11323305A81249A2C98999AA1989A9AA29A2F9A97
S1132340F801E00EF11E4C0D5D1DEE15FF0549F080
S113235042B958B91AB8000089B181934F5F5F4FF1
S1132360F4CF999AA19A9A9AA29A249A2C9A2F9A7B
S11323701AB81BB80F900F900F900F900F90DF9129
S1132380CF911F910F91FF90EF90DF90CF90BF906E
S1132390AF909F908F9008958F929F92AF92BF922B
S11323A0CF92DF92EF92FF920F931F93CF93DF931D
S11323B000D000D01F92CDB7DEB76C014B015A019B
S11323C0790164E0769F612D77271124C601D7DE59
S11323D0AE014F5F5F4FB401C6012DDFC5018E0D05
S11323E09F1D2B813C812817390720F481E0F601D9
S11323F0868726C09A9AA298999AA1989A9AA29A9C
S113240049815A814A0D5B1D8FEF8AB9F801E00EAC
S1132410F11EEE15FF0559F042B958B94F5F5F4FF1
S11324202F98000081918BB900002F9AF2CF999ACE
S1132430A19A9A9AA29A249A2C9A2F9A1AB81BB8FB
S11324400F900F900F900F900F90DF91CF911F91ED
S11324500F91FF90EF90DF90CF90BF90AF909F903F
S11324608F900895CF92DF92EF92FF920F931F9374
S1132470CF93DF9300D000D01F92CDB7DEB78C018D
S11324806B017A0164E0769F612D77271124C801DE
S113249076DEAE014F5F5F4FB601C801CCDE8B81A3
S11324A09C818E159F0520F481E0F801868721C068
S11324B08FEF8AB980E090E08E159F0589F029811D
S11324C03A81280F391F9A9AA29822B938B92F98BD
S11324D0999AA1989A9AA29A00001BB80196ECCFF7
S11324E0999AA19A9A9AA29A249A2C9A2F9A1AB8EB
S11324F01BB80F900F900F900F900F90DF91CF911A
S11325001F910F91FF90EF90DF90CF9008957F92ED
S11325108F929F92AF92BF92CF92DF92EF92FF92EF
S11325200F931F93CF93DF93EC018B0160E027DEC1
S11325308881FE01E80FF11DE80FF11D2681378126
S11325402F5F3F4F45E0F42EF29EC001F39E900DA5
S113255011248095909522853385821B930B8017D7
S11325609107F0F461E0CE010ADE8881FE01E80FF4
S1132570F11DE80FF11D268137812F5F3F43F29E45
S1132580C001F39E900D112480959095228533858A
S1132590821B930B8017910718F480E090E0CEC063
S11325A08881FE01E80FF11DE80FF11D86819781F6
S11325B0892B89F51C830B831A82198281E08D8310
S11325C013870287402F6AEF7FEFCE0106DE4C812E
S11325D06BEF7FEFCE0101DE49816CEF7FEFCE011F
S11325E0FCDD4A816DEF7FEFCE01F7DD4D816EEFAB
S11325F07FEFCE01F2DD888190E0FC013396EE0F8F
S1132600FF1FEC0FFD1F90E4899F902D8827112454
S1132610019691838083888190E0FC013396EE0FCC
S1132620FF1FEC0FFD1F208131812115310509F4B5
S1132630B4CF90E4899F902D88271124281B390B4F
S113264055E0752E729E5001739EB00C11246501E5
S1132650C094D094B601CE01D7DDE82E6627772743
S11326606A197B09CE01D0DD882EB6016E5F7F4FDB
S1132670CE01CADDF82EB6016D5F7F4FCE01C4DDF9
S1132680982EB6016C5F7F4FCE01BEDD888190E04D
S1132690FC01EE0FFF1FEC0FFD1F268137812F5F1A
S11326A03F4F90E4899F902D88271124A901481B4E
S11326B0590B749E5001759EB00C11246501C09491
S11326C0D0942E2D30E038298F2D90E0992979016E
S11326D0E80EF91EC6018E199F098017910708F4A8
S11326E05CCF82859385800F911F93878287402FCB
S11326F0B601CE0172DD662777276A197B09412F5F
S1132700CE016BDDB6016E5F7F4F4E2DCE0165DDD0
S1132710B6016D5F7F4F4F2DCE015FDDB6016C5F5B
S11327207F4F41E0CE0159DD8881C80FD11DC80F0C
S1132730D11D8E819F8101969F838E83DF91CF91DE
S11327401F910F91FF90EF90DF90CF90BF90AF90CB
S11327509F908F907F9008958BE696E01CCDFC01AE
S113276062830895CF93DF93EC018CE095E00E949F
S1132770990618821982DF91CF9108950F931F93C0
S1132780CF93DF93EC014930D8F42B818A8190E018
S1132790820F911D689F9001699F300D11242C3781
S11327A0310574F4142F062F8CE095E00E949406F2
S11327B06B818A81680F609F602D1124688319835F
S11327C0DF91CF911F910F9108950F931F93CF9392
S11327D0DF93493060F46C3750F4C42FD62F8C014A
S11327E08CE095E00E942A06F801D083C183DF9132
S11327F0CF911F910F910895EF92FF920F931F9322
S1132800CF93DF93EC01605285E0689F800111242F
S1132810E12CF12CF801EE0DFF1DE655FB4F649100
S11328208CE095E00E94590688818F5F88838FEF42
S1132830E81AF80A85E0E816F10461F710E08A81E5
S1132840181750F460E08CE095E00E9459068881E6
S11328508F5F88831F5FF3CFDF91CF911F910F911B
S1132860FF90EF900895FC014081238130E0240F14
S1132870311D4281240F311D213831050CF4BCCFA8
S11328800895EF92FF920F931F93CF93DF937C01F0
S1132890EB018B01025E1F4F6991662339F06A30A8
S11328A029F0C701A9DFC017D107B1F7DF91CF9194
S11328B01F910F91FF90EF900895EF92FF920F9365
S11328C01F93CF93DF937C01EB018B01005B1F4FC0
S11328D06991662329F0C701C6DFC017D107C1F784
S11328E0DF91CF911F910F91FF90EF900895EBE747
S11328F0F6E01082118281E0828385E08383CF0138
S113290031CF6E3B21E0720780F06D5B714080E057
S113291090E01AD323E333E343E95FE3A7D420E051
S113292030E84EED53E4D2D115C08DEB91E09C011B
S1132930261B370BB90180E090E006D323E333E391
S113294043E95FE393D49B01AC0160E070E88EED52
S113295093E4BBD1CDD2CB010895673D21E072074A
S113296080F0665D714080E090E0EED22AE939E9BA
S113297049EB5FE37BD420E030E04BEE53E4A6D197
S113298015C086ED91E09C01261B370BB90180E050
S113299090E0DAD22AE939E949EB5FE367D49B0195
S11329A0AC0160E070E08BEE93E48FD1A1D2CB0157
S11329B00895CF93DF938AEF92E00E94A603EC017F
S11329C08AEF92E00E94C2038C0F9D1F8E399240C1
S11329D090F3DF91CF910895CF93DF938AEF92E044
S11329E00E94A603EC018AEF92E00E94C203C80F82
S11329F0D91F81E0CE39D24008F080E0DF91CF9139
S1132A0008956F927F928F929F92AF92BF92CF92CE
S1132A10DF92EF92FF920F931F93CF93DF93CDB783
S1132A20DEB7A8970FB6F894DEBF0FBECDBF8C01FA
S1132A30C0DF7E0185E1E80EF11CFE0131966F01D5
S1132A403E01F9E26F0E711C460157018AEF92E0D4
S1132A500E94FA03F501819391935F018AEF92E05A
S1132A600E94DE03F401819391934F01A614B704ED
S1132A7069F780E090E0A12CB12CF701219131910C
S1132A807F01A20EB31EF601219131916F01820FD5
S1132A90931FE614F70489F72AE0E22EF12CB7011C
S1132AA0BAD5C8015ADFF80193838283C501B701FF
S1132AB0B2D5C80126DFF80191838083A8960FB6AA
S1132AC0F894DEBF0FBECDBFDF91CF911F910F9160
S1132AD0FF90EF90DF90CF90BF90AF909F908F903A
S1132AE07F906F9008958FE796E076DF8823D9F37F
S1132AF008958FE796E0F7DF60E070E881E090E00A
S1132B000C941B040F931F93CF93DF93EC018B0161
S1132B108FE796E076DFC801ECDFF80182819381CC
S1132B2020813181398328839B838A83CE01DF917D
S1132B30CF911F910F910895AF92BF92CF92DF92E0
S1132B40EF92FF920F931F93CF93DF93EC015C01FD
S1132B5082E0A80EB11CB982A8828DEC92E09B831E
S1132B608A8381E08C831F821886198682EA92E028
S1132B709B878A871C861D868FEF8E876E01A1E155
S1132B80CA0ED11C76018E010F5C1C4FF701148212
S1132B9015821682178264E670E08BE696E0B7DC55
S1132BA0D7018D939C9364E170E08BE696E0AFDCF3
S1132BB0F701938382836081718144E650E08BE660
S1132BC096E050DCD70112966D917C91139744E105
S1132BD050E08BE696E046DCB8E0EB0EF11C0E15F7
S1132BE01F05A1F68AE590E0D7D5F8019383828387
S1132BF0892B09F4FFCF80E090E0D8011296ED9183
S1132C00FC911397E80FF91F108201968A359105FC
S1132C10A1F78AE514968C93149715961C92159730
S1132C201C9211961C92FE01E95CFC4F10823196B5
S1132C301082C5010E949507188B0F87DE82CD8212
S1132C40DF91CF911F910F91FF90EF90DF90CF9084
S1132C50BF90AF900895CF93DF93CDB7DEB7C9533C
S1132C60D3400FB6F894DEBF0FBECDBF879A8F9ABC
S1132C70269A82E38093800085E1809381001092FC
S1132C808500109284008AE590E0909387008093F9
S1132C90860086E490E090938B0080938A00CE01B6
S1132CA001964ADFCE0101960E942909FFCF9F9326
S1132CB09F7787D10F9000203AF49058A2EA2AED2A
S1132CC03FE049E450E413D030C25058BB27AA2750
S1132CD00ED02BC2F4D130F0F9D120F031F49F3F63
S1132CE011F41EF4B3C10EF4E095E7FBA9C1E92F7A
S1132CF03ED280F3BA17620773078407950718F06A
S1132D0071F49EF556C20EF4E0950B2EBA2FA02D49
S1132D100B01B90190010C01CA01A0011124FF2784
S1132D20591B99F0593F50F4503E68F11A16F0407F
S1132D30A22F232F342F4427585FF3CF469537957E
S1132D402795A795F0405395C9F77EF41F16BA0B43
S1132D50620B730B840BBAF09150A1F0FF0FBB1FF1
S1132D60661F771F881FC2F70EC0BA0F621F731F3A
S1132D70841F48F4879577956795B795F7959E3F97
S1132D8008F0B3CF9395880F08F09927EE0F979525
S1132D90879508959F939F77EEE389379E0720F4E4
S1132DA0EEEFF0E07BD109C00CD19058A2EA2AEDF5
S1132DB03FE049EC5FE39BDFB8D10F9007FC9058EC
S1132DC00895DF93DD27B92FBF7740E85FE3161638
S1132DD0170648075B0710F4D92FF6D19F938F93FA
S1132DE07F936F933AD3E2E1F1E033D19ED12F91F7
S1132DF03F914F915F9146D2DD2349F09058A2EA6A
S1132E002AED3FE049EC5FE3D0785D2770DFDF9186
S1132E108CC1F2D008F481E0089560D1E39596C1A5
S1132E200CD083C153D140F04AD130F021F45F3F3C
S1132E3019F006C15111BEC109C199D198F3992362
S1132E40C9F35523B1F3951B550BBB27AA2762176A
S1132E507307840738F09F5F5F4F220F331F441FAF
S1132E60AA1FA9F333D00E2E3AF0E0E830D09150E7
S1132E705040E695001CCAF729D0FE2F27D0660FD4
S1132E80771F881FBB1F261737074807AB07B0E813
S1132E9009F0BB0B802DBF01FF2793585F4F2AF029
S1132EA09E3F510568F0CCC085C15F3FECF3983E6E
S1132EB0DCF3869577956795B795F7959F5FC9F786
S1132EC0880F911D9695879597F90895E1E0660F0F
S1132ED0771F881FBB1F621773078407BA0720F088
S1132EE0621B730B840BBA0BEE1F88F7E0950895F1
S1132EF046D188F09F5790F0B92F9927B751A0F089
S1132F00D1F0660F771F881F991F1AF0BA95C9F779
S1132F1012C0B13081F04DD1B1E008954AC1672F9C
S1132F20782F8827B85F39F0B93FCCF38695779529
S1132F306795B395D9F73EF4909580957095619512
S1132F407F4F8F4F9F4F0895E89409C097FB3EF43D
S1132F5090958095709561957F4F8F4F9F4F9923E2
S1132F60A9F0F92F96E9BB279395F6958795779560
S1132F706795B795F111F8CFFAF4BB0F11F460FF20
S1132F801BC06F5F7F4F8F4F9F4F16C0882311F078
S1132F9096E911C0772321F09EE8872F762F05C08C
S1132FA0662371F096E8862F70E060E02AF09A9527
S1132FB0660F771F881FDAF7880F9695879597F91C
S1132FC00895DF93CF931F930F938B01EC01EFE3ED
S1132FD0F1E03FD0AAD09801AE018B01EC0160E092
S1132FE070E080E89FE371DEFAD19801AE010F91A1
S1132FF01F91CF91DF9146C1990F0008550FAA0B7D
S1133000E0E8FEEF16161706E807F907C0F01216F7
S11330101306E407F50798F0621B730B840B950BFA
S113302039F40A2661F0232B242B252B21F408954F
S11330300A2609F4A140A6958FEF811D811D0895EC
S113304097F99F6780E870E060E008959FEF80EC57
S11330500895DF93CF931F930F93FF92EF92DF9224
S11330607B018C01689405C0DA2EEF010BD1FE01BF
S1133070E894A5912591359145915591AEF3EF01D1
S113308036DEFE019701A801DA9479F7DF90EF901C
S1133090FF900F911F91CF91DF9108959F938F938C
S11330A07F936F93FF93EF939B01AC01DFD0EF917C
S11330B0FF91CFDF2F913F914F915F91D7C00024B3
S11330C00A941616170618060906089500240A9489
S11330D012161306140605060895B8CF50D0E8F367
S11330E0E894E0E0BB279F57F0F02AED3FE049EC7D
S11330F006C0EE0FBB0F661F771F881F28F0B23A79
S113310062077307840728F0B25A620B730B840BAF
S1133110E3959A9572F7803830F49A95BB0F661F41
S1133120771F881FD2F79048EEC1092E0394000C34
S113313011F4882352F0BB0F40F4BF2B11F460FF4D
S113314004C06F5F7F4F8F4F9F4F0895EF93E0FF51
S113315006C0A2EA2AED3FE049EC5FEBC8DDE5DFFB
S11331600F90039401FC9058E7E6F1E097CF57FDE8
S11331709058440F551F59F05F3F71F04795880FE1
S113318097FB991F61F09F3F79F087950895121678
S113319013061406551FF2CF4695F1DF08C0161624
S11331A017061806991FF1CF8695710561050894D5
S11331B00895E894BB2766277727CB0197F90895EC
S11331C01BDF08F48FEF08959B01AC0160E070E011
S11331D080E89FE325CE0AD029ED3BE54EED5EE382
S11331E045C00EF08EC132CF68942ACFC8DFC8F331
S11331F09923D1F3C6F3DF93CF931F930F93FF92D9
S1133200C92FDD2788232AF02197660F771F881F8F
S1133210DAF720E030E040E85FEB9FE3883920F004
S1133220803E30F021968F7751DDE5E8F1E003C070
S11332304DDDE2EBF1E00DDF8B01BE01EC01FB2E75
S11332406F5771097595771F880B990B7FDE28E1FD
S113325032E741E35FE316D0AF2D9801AE01FF9052
S11332600F911F91CF91DF9142DD5FCF0BD05DCFE6
S113327026DF28F02BDF18F0952309F0E1CEE6CE07
S1133280112498CF74DFA0F3959FD1F3950F50E0EC
S1133290551F629FF001729FBB27F00DB11D639F04
S11332A0AA27F00DB11DAA1F649F6627B00DA11DAA
S11332B0661F829F2227B00DA11D621F739FB00D50
S11332C0A11D621F839FA00D611D221F749F3327C0
S11332D0A00D611D231F849F600D211D822F762F59
S11332E06A2F11249F5750408AF0E1F088234AF056
S11332F0EE0FFF1FBB1F661F771F881F91505040A2
S1133300A9F79E3F510570F09BCE54CF5F3FECF37D
S1133310983EDCF3869577956795B795F795E7958D
S11333209F5FC1F7FE2B880F911D9695879597F99E
S11333300895FA01EE0FFF1F30962105310599F12A
S11333406115710561F48038BFE39B0749F1689406
S11333509038810561F08038BFEF9B0741F09923D5
S113336042F5FF3FE1053105210511F1E894089488
S1133370E795D901AA2329F4AB2FBE2FF85FD0F328
S113338010C0FF5F70F4A695E0F7F73950F019F01C
S1133390FF3A38F49F779F930CD00F9007FC905816
S11333A008953EF053CE60E070E080E89FE3089516
S11333B04FE79F775F934F933F932F9317DF2F919F
S11333C03F914F915F9152DF70C09F9387DE0F90C2
S11333D007FCEE5FBBCE11F40EF438CE92C0CFDE04
S11333E0D0F39923D9F3CEF39F57550B87FF97D08A
S11333F00024A0E640EA900180585695979528F459
S1133400805C660F771F881F20F026173707480750
S113341030F4621B730B840B202931294A2BA695A7
S113342017940794202531254A2758F7660F771FEC
S1133430881F20F026173707480730F4620B730BF8
S1133440840B200D311D411DA09581F7B901842FF6
S11334509158880F9695879508959B01AC0106CFE6
S1133460DF93D92F3BDEE695D7952AED3FE049E47B
S11334705FE3B33A6207730784079507D7952AF089
S1133480A2EA49EC906833DC50DEEFEDF1E006DEB1
S1133490DD0F0BF099DEDD0F0BF49058DF910895EA
S11334A019F40EF0CDCD85CED1CD69DEC8F39638B2
S11334B0C0F707F80F92E8942BE33AEA48EB5FE78A
S11334C0E3DE0F920F920F924DB75EB70F9264D066
S11334D0E2E0F2E0BEDD4F915F91EF91FF91E5955F
S11334E0EE1FFF1F49F0FE57E0684427EE0F441F0C
S11334F0FA95E1F74195550B1BD00F9007FE64CE6A
S113350008959F3F31F0915020F487957795679502
S1133510B795880F911D9695879597F908959150C1
S11335205040660F771F881FD2F7089589CDE9CFE1
S113353026DEE8F39923D9F3940F511DBBF3915080
S1133540504094F059F0882332F0660F771F881F9B
S113355091505040C1F79E3F510544F7880F911D8B
S11335609695879597F908955F3FACF0983E9CF047
S1133570BB27869577956795B79508F4B1609395C1
S1133580C1F7BB0F58F711F460FFE8CF6F5F7F4FAF
S11335908F4F9F4FE3CF0ECEFA01DC01AA0FBB1F62
S11335A09B01AC01BF5728F42227332744275078C6
S11335B01FC0B75188F4AB2F002446953795279543
S11335C0011CA395D2F3002069F0220F331F441F7E
S11335D0B395DAF30DD079CB61307105A0E88A0791
S11335E0B94630F49B01AC01662777278827907889
S11335F0309621F020833183428353830895991BAD
S113360079E004C0991F961708F0961B881F7A95D5
S1133610C9F780950895AA1BBB1B51E107C0AA1FD7
S1133620BB1FA617B70710F0A61BB70B881F991F5F
S11336305A95A9F780959095BC01CD010895EE0F98
S1133640FF1F0024001C0BBE0790F691E02D099487
S1133650CF92DF92FF920F931F93CF93DF93EA01F0
S1133660F02E122F283008F017E000E0212FAE01D1
S1133670B7D19881292F2870DE0190FF06C021114F
S113368004C011962DE228830CC0F1FE03C01196EC
S11336903BE204C0F0FE03C0119630E238832111EE
S11336A005C092FF0CC06AE272E002C062E372E0FD
S11336B0F2FE02C06C5F7F4FCD016AD245C0FD01AE
S11336C0319629812C93213309F09F7E1123B9F07F
S11336D0AE014E5F5F4F6F01312F2EE2DA016D9123
S11336E0AD01D6012D936D013150262FB9F711503C
S11336F0DF01A10FB11DFD01329611966C93F2FC0E
S113370002C025E601C025E42083DF01129687FF6D
S113371004C09DE2918381950AC0811106C094FF83
S113372004C09DE2918390E308C09BE2918390E3FF
S11337308A301CF09F5F8A50FBCF9C93805D11966A
S11337408C93119712961C92CE01DF91CF911F9109
S11337500F91FF90DF90CF900895EF920F931F93F6
S1133760CF93DF93E80147FD02C034E001C034E1A8
S1133770042E000C550B57FF03C051954195510978
S1133780E32E022F242FAE0133D4CE01DF91CF914B
S11337901F910F91EF9008950F931F93CF93DF9391
S11337A08230910510F482E090E0E0918506F0917A
S11337B0860620E030E0A0E0B0E0309719F14081C7
S11337C051810281138148175907C8F0841795075E
S11337D069F4109731F012960C93129713961C9378
S11337E027C0009385061093860622C02115310553
S11337F019F04217530718F49A01BD01EF01DF01D4
S1133800F801DBCF21153105F9F0281B390B2430E1
S1133810310580F48A819B816115710521F0FB01DA
S11338209383828304C09093860680938506FE0169
S1133830329644C0FE01E20FF31F8193919322500C
S11338403109398328833AC0209183063091840654
S1133850232B41F420910202309103023093840619
S11338602093830620910002309101022115310535
S113387041F42DB73EB74091040250910502241B38
S1133880350BE0918306F0918406E217F307A0F468
S11338902E1B3F0B2817390778F0AC014E5F5F4FA2
S11338A02417350748F04E0F5F1F5093840640934A
S11338B083068193919302C0E0E0F0E0CF01DF91B1
S11338C0CF911F910F910895CF93DF93009709F43F
S11338D081C0FC01329713821282A0918506B091B7
S11338E08606109781F420813181820F931F2091E5
S11338F08306309184062817390751F5F09384061E
S1133900E093830667C0ED0120E030E0CE17DF07C7
S113391040F44A815B819E0141155105F1F0EA01B1
S1133920F5CFD383C28340815181840F951FC8177B
S1133930D90759F488819981840F951F0296918340
S113394080838A819B81938382832115310529F4A5
S1133950F0938606E09385063DC0E901FB83EA8384
S113396049915991C40FD51FEC17FD0761F480816B
S11339709181840F951F0296E9019983888382813E
S113398093819B838A83E0E0F0E012968D919C9171
S11339901397009719F0FD01DC01F7CF8D919C91ED
S11339A011979D012E5F3F4F820F931F2091830635
S11339B0309184062817390769F4309729F4109256
S11339C086061092850602C013821282B093840682
S11339D0A0938306DF91CF910895662777277EC44D
S11339E0283008F027E03327DA01990F311D87FDCD
S11339F0916000966105710539F432602E5F3D9344
S1133A0030E32A95E1F708959F3F30F0803871053F
S1133A10610509F03C5F3C5F3D93913008F080689C
S1133A20911DDF93CF931F930F93FF92EF92192F62
S1133A30987F9695E92F96959695E90FFF27EC5672
S1133A40FD4F99273327EE24FF24A701E7010590B2
S1133A500894079428F4360FE71EF81E491F511DD9
S1133A60660F771F881F991F0694A1F70590079486
S1133A7028F4E70EF81E491F561FC11D770F881F33
S1133A80991F661F0694A1F70590079428F4F80E71
S1133A90491F561FC71FD11D880F991F661F771F07
S1133AA00694A1F70590079420F4490F561FC71FE9
S1133AB0D81F990F661F771F881F0694A9F7849152
S1133AC01095177041F0D695C79557954795F7947B
S1133AD0E7941A95C1F7EAE3F2E06894159015911A
S1133AE035916591959105907FE27395E118F10AFE
S1133AF0430B560BC90BD009C0F7E10CF11E431F51
S1133B00561FC91FD01D7EF4703311F48A95E6CF79
S1133B10E894015030F0080F0AF40027021708F463
S1133B20202F2395022F7A3328F079E37D932A9569
S1133B30E9F710C07D932A9589F6069497956795C1
S1133B40379517951794E118F10A430B560BC90BD7
S1133B50D00998F023957E9173957A3308F070E339
S1133B607C932013B8F77E9170617D9330F0839538
S1133B7071E37D9370E32A95E1F71124EF90FF90B0
S1133B800F911F91CF91DF91992787FD909508950B
S1133B90FB01DC0105900D920020E1F70895FB0183
S1133BA0DC018D91019080190110D9F3990B0895CE
S1133BB0BB274A3031F4992322F4BDE290958195D4
S1133BC09F4F01C0BB27FB015527AA27880F991FC8
S1133BD0AA1FA41710F0A41B83955051B9F7A05D38
S1133BE0AA3308F0A95DA193009779F7B111B193B5
S1133BF01192CB0100C52F923F924F925F926F9228
S1133C007F928F929F92AF92BF92CF92DF92EF9268
S1133C10FF920F931F93CF93DF93CDB7DEB72B970C
S1133C200FB6F894DEBF0FBECDBF6C017B018A01D5
S1133C30FC0117821682838181FFBFC1CE010196E8
S1133C403C01F6019381F70193FD859193FF8191E6
S1133C507F01882309F4ADC1853239F493FD859140
S1133C6093FF81917F01853221F4B60190E0D3D492
S1133C70E8CF912C212C312CFFE1F315D8F08B32B5
S1133C8079F038F4803279F08332A1F4232D206165
S1133C901DC08D3261F0803369F4232D216016C07C
S1133CA0832D8260382EE32DE4603E2E2AC0F32D4E
S1133CB0F8601DC037FC2DC020ED280F2A3040F0DD
S1133CC08E32B9F436FC75C1232D2064322E19C00E
S1133CD036FE06C08AE0989E200D1124922E11C053
S1133CE0EAE02E9E200D1124222EF32DF0623F2EA9
S1133CF008C08C3621F4832D8068382E02C08836A3
S1133D0041F4F70193FD859193FF81917F01811126
S1133D10B3CF982F9F7D9554933028F40C5F1F4F99
S1133D209FE399830DC0833631F0833771F0833577
S1133D3009F055C020C0F801808189830E5F1F4FB0
S1133D4088248394912C530112C02801F2E04F0E71
S1133D50511CF801A080B18036FE03C0692D70E0CB
S1133D6002C06FEF7FEFC5013BD44C018201F32DFC
S1133D70FF773F2E15C0280122E0420E511CF801A6
S1133D80A080B18036FE03C0692D70E002C06FEFE1
S1133D907FEFC5011AD44C01F32DF0683F2E820148
S1133DA033FC19C0822D90E088169906A0F4B60160
S1133DB080E290E030D42A94F5CFF50137FC859168
S1133DC037FE81915F01B60190E025D421102A9439
S1133DD021E0821A91088114910479F7E1C08436B4
S1133DE011F0893639F5F80137FE07C06081718119
S1133DF0828193810C5F1F4F08C060817181072EFF
S1133E00000C880B990B0E5F1F4FF32DFF763F2E8E
S1133E1097FF09C090958095709561957F4F8F4F5E
S1133E209F4FF0683F2E2AE030E0A30130D4882E63
S1133E30861844C0853731F4232D2F7EB22E2AE014
S1133E4030E025C0932D997FB92E8F36C1F018F438
S1133E50883579F0AEC0803719F0883721F0A9C0D1
S1133E60E92FE061BE2EB4FE0DC0FB2DF460BF2E21
S1133E7009C034FE0AC0292F2660B22E06C028E0ED
S1133E8030E005C020E130E002C020E132E0F8017A
S1133E90B7FE07C060817181828193810C5F1F4FDF
S1133EA006C06081718180E090E00E5F1F4FA30126
S1133EB0EED3882E8618FB2DFF773F2E36FE0DC0DD
S1133EC0232D2E7FA22E891458F434FE0BC032FC0D
S1133ED009C0832D8E7EA82E05C0B82CA32C03C048
S1133EE0B82C01C0B92CA4FE0FC0FE01E80DF11DD1
S1133EF08081803321F49A2D997EA92E09C0A2FED7
S1133F0006C0B394B39404C08A2D867809F0B394A0
S1133F10A3FC10C0A0FE06C0B21480F4280C922C9E
S1133F209B180DC0B21458F4B60180E290E073D32C
S1133F30B394F8CFB21418F42B1802C0982C212C87
S1133F40A4FE0FC0B60180E390E065D3A2FE16C0C4
S1133F50A1FC03C088E790E002C088E590E0B601C8
S1133F600CC08A2D867851F0A1FE02C08BE201C0FC
S1133F7080E2A7FC8DE2B60190E04DD3891430F4C1
S1133F80B60180E390E047D39A94F8CF8A94F30182
S1133F90E80DF11D8081B60190E03DD38110F6CF8C
S1133FA0222009F44ECEB60180E290E034D32A9464
S1133FB0F7CFF6018681978102C08FEF9FEF2B9692
S1133FC00FB6F894DEBF0FBECDBFDF91CF911F9126
S1133FD00F91FF90EF90DF90CF90BF90AF909F90A4
S1133FE08F907F906F905F904F903F902F900895A7
S1133FF08F929F92AF92BF92CF92DF92EF92FF92F5
S11340000F931F93CF93DF93CDB7DEB729970FB6E6
S1134010F894DEBF0FBECDBF6A01122FB02E2BE382
S1134020201720F0FF24F394F00E02C02CE3F22EAC
S11340300F2D27E0AE014F5F5F4FD2DCBC014981F9
S1134040842F8970813031F0E1FC06C0E0FE06C0A7
S113405090E205C09DE203C09BE201C090E05E2DAA
S1134060507143FF3CC0911102C083E001C084E061
S1134070811718F4212F281B01C020E051110BC017
S1134080F601822F30E2882319F031938150FBCF5F
S1134090C20ED11C20E0992329F0D6019C93F6018D
S11340A031966F01C6010396E2FE0AC03EE4D601D2
S11340B03C9341E411964C93119712963C9306C09D
S11340C03EE6F601308341E641833283FC01322F20
S11340D040E2332309F442C041933150FACF42FF06
S11340E044C0911102C083E001C084E0811718F438
S11340F0212F281B01C020E051110BC0F601822F93
S113410030E2882319F031938150FBCFC20ED11CC9
S113411020E0992329F0D6019C93F60131966F0192
S1134120C6010396E2FE0BC039E4D6013C933EE49B
S113413011963C93119736E412963C9307C039E6E6
S1134140F60130833EE6318336E63283FC01322FBA
S113415040E2332319F041933150FBCFFC01E20FCD
S1134160F11D10828EEF9FEFA6C021E030E0911187
S113417002C020E030E0161617061CF4FB0131964D
S113418002C0E1E0F0E02E0F3F1FBB2021F0EB2D39
S1134190F0E0319602C0E0E0F0E02E0F3F1FE12F87
S11341A0F0E02E173F071CF4121B212F01C020E062
S11341B08E2D887159F4F601822F30E2882319F08C
S11341C031938150FBCFC20ED11C20E0992329F0FA
S11341D0D6019C93F60131966F0151110BC0F60183
S11341E0822F90E3882319F091938150FBCFC20E64
S11341F0D11C20E00F2D060F9A81342F307144FF1B
S113420003C0913309F40150101624F4093018F056
S113421008E001C001E0AB0177FF02C040E050E0DC
S1134220FB01E41BF50BA1E0B0E0AC0FBD1FEA0FEE
S1134230FB1F8EE2A82E4B01801A91080B2D10E073
S11342401195019511094F3FBFEF5B0721F4D6018A
S1134250AC9211966D01641775072CF084169506BF
S113426014F4818101C080E3415051093196D60193
S113427011967D014017510724F0D6018C936701F4
S1134280E2CF6417750739F4963320F4953319F4A3
S1134290311101C081E3F6018083F701822F90E29E
S11342A0882319F091938150FBCFF701E20FF11DA0
S11342B0108280E090E029960FB6F894DEBF0FBE1E
S11342C0CDBFDF91CF911F910F91FF90EF90DF90C1
S11342D0CF90BF90AF909F908F9008958F929F92B0
S11342E0AF92BF92CF92DF92EF92FF920F931F9300
S11342F0CF93DF93EC016B016115710519F0FB019C
S1134300918380837E01FFEFEF1AFF0A0881802FDB
S113431090E03BD1892B11F0E701F4CF0D3239F451
S11343207E0182E0E80EF11C098111E008C00B3225
S113433029F47E0192E0E90EF11C098110E0E70105
S1134340219743E050E06CE373E0CE0126D1892B42
S1134350B9F4239645E050E067E373E0CE011DD144
S1134360892B09F42596C114D10419F0F601D183DF
S1134370C0831111F4C060E070E080E89FE7F8C0EA
S113438043E050E064E373E0CE0107D1892B59F494
S1134390C114D10409F4E8C0F2E0EF0EF11CF601F7
S11343A0F182E082E1C020E030E0A901C0E0D0E089
S11343B0F70160EDA62EA00E89E08A1528F1912F51
S11343C09260B92E812F887012FF04C0811123C01E
S11343D0219621C081112197A5E0B0E0B9D1DC017B
S11343E0CB01880F991FAA1FBB1F9C01AD012A0D89
S11343F0311D411D511D283989E93807480789E1D4
S1134400580748F0166006C09EEFA9120AC013FDB3
S113441040C01860B12E8FEFE81AF80A00811B2DF6
S1134420C7CF802F8F7D8534A1F580818D3211F423
S1134430106106C08B3221F0319661E070E004C057
S11344408181329662E070E080538A3018F0E61B76
S1134450F70B1FC060E070E060389CE079075CF403
S1134460DB01AA0FBB1FAA0FBB1F6A0F7B1F660FBE
S1134470771F680F711D3196DF0111978C9180535E
S11344808A3050F314FF03C0719561957109C60F0A
S1134490D71F11FF08C0C114D10429F0CF0101971F
S11344A0F60191838083CA01B9010E94A417212FC8
S11344B02370233019F04B015C0106C04B015C01F1
S11344C0B7FAB094B7F8B09420E030E0A901C50180
S11344D0B4010E940917882309F43EC0D7FF06C01F
S11344E0D195C195D10903E513E002C00BE613E0B1
S11344F06801F8E1CF1AD10890E2E92EF12CCE152B
S1134500DF0574F0F8012591359145915491C50169
S1134510B4010E9436194B015C01CE19DF09EFCFBB
S113452004501109F594E7940C151D0541F78A2DE3
S1134530880F8B2D881F8F3F49F020E030E0A901C0
S1134540C501B4010E940917811106C082E290E0FE
S11345509093880680938706C501B40109C060E082
S113456070E080E89FEF04C060E070E080EC9FE7BB
S1134570DF91CF911F910F91FF90EF90DF90CF903B
S1134580BF90AF909F908F9008959111DEC08032BC
S113459019F089508550D0F70895FB01DC01415092
S11345A0504088F08D9181341CF08B350CF4805E82
S11345B0659161341CF06B350CF4605E861B6111EF
S11345C071F3990B0895881BFCCFFC010590615091
S11345D070400110D8F7809590958E0F9F1F089515
S11345E0FC016150704001900110D8F780959095BE
S11345F08E0F9F1F0895DC01FC01672F71917723B3
S1134600E1F7329704C07C916D9370836291AE1789
S1134610BF07C8F308950F931F93CF93DF93FB0154
S1134620238121FD03C08FEF9FEF2CC022FF16C012
S113463046815781248135814217530744F4A08170
S1134640B1819D012F5F3F4F318320838C9326815D
S113465037812F5F3F4F3783268314C08B01EC01D2
S1134660FB010084F185E02D0995892BE1F6D80141
S113467016968D919C911797019617969C938E93FD
S11346801697CE01DF91CF911F910F910895FA01F2
S1134690AA27283051F1203181F1E8946F936E7F7D
S11346A06E5F7F4F8F4F9F4FAF4FB1E03ED0B4E06E
S11346B03CD0670F781F891F9A1FA11D680F791FAF
S11346C08A1F911DA11D6A0F711D811D911DA11DC0
S11346D020D009F468943F912AE0269F11243019D0
S11346E0305D3193DEF6CF010895462F4770405D6B
S11346F04193B3E00FD0C9F7F6CF462F4F70405D1A
S11347004A3318F0495D31FD4052419302D0A9F774
S1134710EACFB4E0A6959795879577956795BA956E
S1134720C9F700976105710508959B01AC010A2E34
S113473006945795479537952795BA95C9F7620F0B
S1134740731F841F951FA01D089599278827089516
S113475009D0A59F900DB49F900DA49F800D911D2D
S113476011240895A29FB001B39FC001A39F700DAF
S1134770811D1124911DB29F700D811D1124911D65
S10947800895F894FFCF38
S11347860000890620002020202020202020202030
S11347962020205245462081204F4B0A003D2020F0
S11347A620202020202020202020202020202020FF
S11347B620200A003D3D3D3D3D3D3D3D3D3D3D3DC9
S11347C63D3D3D3D3D3D3D3D3D3D3D3D3D0A00714B
S11347D6776572747975696F70283738390A00619C
S11347E673646667686A6B6C5E293635340A007AC8
S11347F6786376626E6D5F3A2A2B3332310A002073
S113480620202020202020212F2D302E2C0A00436A
S11348164C522048454C5020424153450A00000062
S11348260000430523054B048820812020202020F6
S113483620202020202020202020208020008920C5
S113484620204F50434A45200000000000DB081397
S11348560795076173696E0061636F730061746124
S11348666E0061637467006C6E006C6F67006C6E3B
S10D48767800696E74006465720036
S9030000FC
